:100000000C94FA000C9422010C9422010C94561AC0
:100010000C94561A0C94561A0C9422010C9422013A
:100020000C9422010C9422010C9422010C942201C4
:100030000C9422010C9422010C9422010C942201B4
:100040000C94ED180C9422010C94BB180C94951888
:100050000C9422010C9422010C9422010C94220194
:100060000C9437190C942201084AD73B3BCE016E01
:1000700084BCBFFDC12F3D6C74319ABD56833DDAFF
:100080003D00C77F11BED9E4BB4C3E916BAAAABE0E
:10009000000000803F0000000000000000000000A1
:1000A000000000000000000000000000000001014E
:1000B000010101010101010101010202020202022A
:1000C00002020303030303030404040405050505F6
:1000D00005060606060707070808080909090A0AA7
:1000E0000A0B0B0B0C0C0D0D0D0E0E0F0F1010113B
:1000F00011121213131414151516161718181919AE
:100100001A1B1B1C1D1D1E1F1F20212222232425FC
:1001100026262728292A2A2B2C2D2E2F3031323320
:100120003435363738393A3B3C3D3E3F4041424416
:1001300045464748494B4C4D4E50515254555658E0
:10014000595A5C5D5E606163646667696A6C6D6F75
:100150007072737577787A7C7D7F818284868889D6
:100160008B8D8F91929496989A9C9EA0A2A4A6A8FB
:10017000AAACAEB0B2B4B6B8BABCBFC1C3C5C7CAE8
:10018000CCCED1D3D5D7DADCDFE1E3E6E8EBEDF096
:10019000F2F5F7FAFCFF00000000240027002A0017
:1001A0000000000800020100000304070000000036
:1001B00000000000000000002300260029000000CD
:1001C0000000250028002B00040404040404040497
:1001D00002020202020203030303030301020408F2
:1001E00010204080010204081020010204081020A1
:1001F000CE1A692611241FBECFEFD8E0DEBFCDBFD7
:1002000012E0A0E0B1E0EEEFF6E502C005900D923D
:10021000A63CB107D9F725E0A6ECB2E001C01D92DB
:10022000A83DB207E1F710E0C9EFD0E004C0219784
:10023000FE010E94422AC83FD107C9F70E944F1C05
:100240000C94722B0C9400008F929F92AF92BF92ED
:10025000CF92DF92EF92FF92CF9320915D05309184
:100260005E0582179307E8F54B01AA24BB24C82D2D
:10027000C52ED62EE72EFF24BC2DA42F209163057A
:10028000222361F0829E40011124C92D2C9D600122
:100290001124BD2D249FF0011124AF2FE091690599
:1002A000E0906405F090650530916605E31323C086
:1002B0009C01220F331F820F931F8E0D9F1DE09113
:1002C0006605E80FF92FF11DC083E0916705E80F7F
:1002D000F92FF11DB08320916805820F911DFC015B
:1002E000A083CF91FF90EF90DF90CF90BF90AF9021
:1002F0009F908F900895880F991F880F991F8E0DDA
:100300009F1D472F552766277727222349F030E086
:10031000249F7001259FF00C349FF00C11244F2D69
:10032000E80FF92FF11D4083CACFECE6F4E0A08975
:10033000B18982E08C93A485B5851C92A685B7858A
:1003400083E38C93108EA489B58986E08C93A2896F
:10035000B3898C9180618C93A289B3898C918860D8
:100360008C93A289B3898C9180688C930288F389DD
:10037000E02D80818F7D80830895CF92DF92EF9270
:10038000FF920F931F939C01AAEFB5E00E944028B3
:10039000DC01CB019058AF4FBF4FCD01BB2797FD7C
:1003A000B095AB2F8E3F21E0920758F5282F8F3F55
:1003B000910508F445C06EEF681B862F30E02FEFE3
:1003C000682F70E090E080E0CB0177276627D12C82
:1003D000F12CE12C632B7D298E299F29022F10E01F
:1003E00030E020E0322F212F102F0027602B712BBF
:1003F000822B932B1F910F91FF90EF90DF90CF9066
:1004000008958C3F23E0920768F48D3F22E0920725
:1004100028F432E0380F2FEF80E0D2CF2CEF281BEA
:100420003FEFFACF8A3F25E0920769F03AEF381B99
:100430008B3F24E0920740F48C5F3FEF20E0C0CF79
:1004400030E08FEFBDCF30E020E0FBCFAF92BF9226
:10045000CF92DF92EF92FF920F931F93CF93DF9390
:100460006C017B018B01040F151FEB015E01AE18BF
:10047000BF08C017D10759F06991D601ED91FC91E1
:100480000190F081E02DC6010995892B79F7C5010E
:10049000DF91CF911F910F91FF90EF90DF90CF9060
:1004A000BF90AF900895089581E00895089508954C
:1004B000FC01538D448D252F30E0842F90E0821B6A
:1004C000930B541710F0CF96089501970895FC01EF
:1004D000918D828D981761F0A28DAE0FBF2FB11D47
:1004E0005D968C91928D9F5F9F73928F90E008959F
:1004F0008FEF9FEF0895FC01918D828D981731F059
:10050000828DE80FF11D858D90E008958FEF9FEFAC
:100510000895FC01918D228D892F90E0805C9F4F82
:10052000821B91098F73992708958CE694E00E94AD
:10053000890221E0892B09F420E0822F089580E0D0
:1005400090E0892B29F00E94950281110C94000003
:100550000895FC01A48DA80FB92FB11DA35ABF4F58
:100560002C91848D90E001968F739927848FA689B2
:10057000B7892C93A089B1898C91837080648C9306
:10058000938D848D981306C00288F389E02D8081B5
:100590008F7D80830895EF92FF920F931F93CF93E7
:1005A000DF93EC0181E0888F9B8D8C8D98131AC0AE
:1005B000E889F989808185FF15C09FB7F894EE8995
:1005C000FF896083E889F9898081837080648083F2
:1005D0009FBF81E090E0DF91CF911F910F91FF903D
:1005E000EF900895F62E0B8D10E00F5F1F4F0F73E5
:1005F0001127E02E8C8D8E110CC00FB607FCFACFA0
:10060000E889F989808185FFF5CFCE010E94A90292
:10061000F1CFEB8DEC0FFD2FF11DE35AFF4FF08270
:100620009FB7F8940B8FEA89FB8980818062CFCFD6
:10063000CF93DF93EC01888D8823B9F0AA89BB8919
:10064000E889F9898C9185FD03C0808186FD0DC004
:100650000FB607FCF7CF8C9185FFF2CF808185FF25
:10066000EDCFCE010E94A902E9CFDF91CF9108958D
:1006700090E0FC01E056FE4F2491FC01E452FE4F55
:100680003491FC01E853FE4FE491EE23C9F022239C
:1006900039F0233001F1A8F4213019F1223029F189
:1006A000F0E0EE0FFF1FE254FE4FA591B4918FB71B
:1006B000F894EC91611126C030953E233C938FBF96
:1006C00008952730A9F02830C9F0243049F78091E7
:1006D00080008F7D03C0809180008F7780938000A1
:1006E000DFCF84B58F7784BDDBCF84B58F7DFBCF23
:1006F0008091B0008F778093B000D2CF8091B0000E
:100700008F7DF9CF3E2BDACFCF93DF9390E0FC01C2
:10071000E452FE4F249188539E4FFC01849188231C
:10072000C9F090E0880F991FFC01EA56FE4FA59191
:10073000B491FC01E254FE4FC591D49161110DC0FA
:100740009FB7F8948C91209582238C9388812823DD
:1007500028839FBFDF91CF910895623051F49FB7F6
:10076000F8943C91822F809583238C93E8812E2BE3
:10077000EFCF8FB7F894EC912E2B2C938FBFEACF4D
:100780008E50806480937C0080917A008064809396
:100790007A0080917A0086FDFCCF8091780090915C
:1007A000790008953FB7F89480917D0390917E037E
:1007B000A0917F03B091800326B5A89B05C02F3F71
:1007C00019F00196A11DB11D3FBFBA2FA92F982F77
:1007D0008827BC01CD01620F711D811D911D42E072
:1007E000660F771F881F991F4A95D1F70895CF92FA
:1007F000DF92EF92FF920F931F93CF93DF93CDB7CA
:10080000DEB729970FB6F894DEBF0FBECDBF80913B
:10081000640590916505892B09F480C0C0906A0534
:10082000D0906B05E0906C05F0906D050E94D203AE
:100830006C157D058E059F0550F40E94D2036093D0
:100840006A0570936B0580936C0590936D050E940B
:10085000D20300916A0510916B0520916C053091CF
:100860006D05601B710B820B930B6C32714081051F
:100870009105A0F2F89480915F05909160059A83AC
:100880008983E0916405F0916505DF01119680810F
:10089000898790915B05E0916E05F0916F058091DD
:1008A0007005992309F449C09081982B988790810D
:1008B000809589238F838F818C8388E08B835885F3
:1008C0006F8149853B812C8189819A81508347FDC5
:1008D000252F3A952083262F39F0441F00C00000B1
:1008E0006083000000C0F2CF38E04D9160830000CB
:1008F000019761F7F0936F05E0936E0549873B839D
:100900002C839A83898378940E94D20360936A052A
:1009100070936B0580936C0590936D0529960FB6C7
:10092000F894DEBF0FBECDBFDF91CF911F910F9125
:10093000FF90EF90DF90CF9008959081982B98874B
:100940009081809589238F838F818E8388E08D832A
:1009500058856F8149853D812E8189819A81508397
:1009600047FD252F00C000C0208300C000C000C08C
:1009700000C000C060830000262F3A9541F0441F5C
:10098000000000C000C000C000C000C0E8CF38E0D8
:100990004D9100C0608300C0019709F7F0936F0587
:1009A000E0936E0549873D832E83ABCF8F929F9254
:1009B000AF92BF92CF92DF92EF92FF924B015C0118
:1009C0000E94D2036B017C010E94D2036C197D0945
:1009D0008E099F09683E734081059105A8F321E0C7
:1009E000821A9108A108B10888EEC80E83E0D81ECB
:1009F000E11CF11C81149104A104B10429F7FF90BA
:100A0000EF90DF90CF90BF90AF909F908F90089520
:100A10002FB7F8946091790370917A0380917B03EA
:100A200090917C032FBF08950895BF92CF92DF92DB
:100A3000EF92FF920F931F93CF93DF934530D8F43B
:100A4000B42E062FEC0110E060E070E0CB01B1168F
:100A5000A9F0CC24D62EE72EF82EE881F981068065
:100A6000F781E02D602FCE0109959601282BC70153
:100A7000B9011F5FECCF60E070E0CB01DF91CF9157
:100A80001F910F91FF90EF90DF90CF90BF9008954E
:100A900008958091890390918A03891B990B089589
:100AA00020915503260F3327331F21323105ECF4F3
:100AB00020916604FC0190E080E0243069F082E03F
:100AC0000895A09155032191AC014B5C5C4FA40F9C
:100AD000B52FB11D2C930196861798F3809155037D
:100AE000680F6093550380E0089581E008951092A7
:100AF000660481E0809345041092400461E082E145
:100B00000E94380361E083E10E943803E9EBF0E0E2
:100B100080818E7F808380818D7F808388E4809335
:100B2000B80085E48093BC000895CF93DF9391E0F3
:100B3000909334038823B9F0C091B800D091BA00E3
:100B40008091BC008A7B8093BC0060E082E10E94BF
:100B5000380360E083E10E9438030E947705D09358
:100B6000BA00C093B800DF91CF910895CF92DF9281
:100B7000EF92FF920F931F93CF93DF93D82FC62F3F
:100B8000613208F098C00E94D2036B017C01809111
:100B9000660481116BC081E08093660480934504F4
:100BA0009FEF90934404109243049C0F909342044F
:100BB0008093410480914104DD0FD82BD0934104F0
:100BC00080914004813009F078C0109240040E9466
:100BD000D2036B017C01809141048093BB00809122
:100BE000680490916904A0916A04B0916B04892B08
:100BF0008A2B8B2BA1F00E94D203009168041091E4
:100C0000690420916A0430916B046C197D098E0986
:100C10009F09061717072807390708F448C080916D
:100C2000BC0083FDD8CF85EC8093BC000E94D2032A
:100C30006B017C0180916604813009F440C0809191
:100C400043048C1710F4C0914304E0E2F4E0A6E4FE
:100C5000B4E080E08C1355C08C2FDF91CF911F91B1
:100C60000F91FF90EF90DF90CF90089580916804EE
:100C700090916904A0916A04B0916B04892B8A2B2E
:100C80008B2B09F484CF0E94D20300916804109149
:100C9000690420916A0430916B046C197D098E09F6
:100CA0009F09061717072807390708F070CF8091AA
:100CB00067040E949505C0E0CFCF85EEB5CF809147
:100CC000680490916904A0916A04B0916B04892B27
:100CD0008A2B8B2B09F4AECF0E94D20300916804BB
:100CE0001091690420916A0430916B046C197D099C
:100CF0008E099F09061717072807390708F09ACFAA
:100D0000D6CF91919D938F5FA5CF8F929F92AF92F7
:100D1000BF92CF92DF92EF92FF920F931F93CF93E8
:100D2000DF93D0911F04D13208F0D7C0182FC091A3
:100D30001E040E94D2036B017C0180916604811124
:100D40006BC082E080936604109345048FEF80931C
:100D5000440410924304D0934204AEEFB3E0E0E2C7
:100D6000F4E080E0D81391C01092410480914104D6
:100D7000CC0FC82BC093410480914004813009F00E
:100D800088C0109240040E94D2036B017C018091C4
:100D900041048093BB008091680490916904A09104
:100DA0006A04B0916B04892B8A2B8B2BA1F00E94D3
:100DB000D203009168041091690420916A04309173
:100DC0006B046C197D098E099F0906171707280700
:100DD000390708F442C08091BC0083FDD8CF85EC70
:100DE0008093BC000E94D2036B017C018091660459
:100DF000823009F450C0809144048F3F09F46FC0E1
:100E000080914404803209F46CC0809144048033A2
:100E100009F469C084E026C0809168049091690457
:100E2000A0916A04B0916B04892B8A2B8B2B09F457
:100E300084CF0E94D2038090680490906904A090AF
:100E40006A04B0906B046C197D098E099F0986169F
:100E50009706A806B90608F070CF809167040E9433
:100E6000950585E01092FD0310921F041092FC037B
:100E7000DF91CF911F910F91FF90EF90DF90CF9076
:100E8000BF90AF909F908F9008959D9191938F5FA9
:100E900069CF85EEA5CF8091680490916904A091F7
:100EA0006A04B0916B04892B8A2B8B2B09F49ECF9B
:100EB0000E94D203009168041091690420916A0491
:100EC00030916B046C197D098E099F09061717076D
:100ED0002807390708F08ACFC0CF81E0C3CF80E070
:100EE000C1CF82E0BFCF83E0BDCF1F93CF93DF930D
:100EF000FC01A6A1B7A1109721F1142FEC0180A548
:100F000091E09093FC0380931E041092FD031092D5
:100F10001F04ED91FC9111970190F081E02DCD011E
:100F200009958EA19FA1DC01ED91FC910190F081CA
:100F3000E02D612F099581E0DF91CF911F910C94F5
:100F40008506DF91CF911F910895E0918A038091EA
:100F50008903E81730F4F0E0EA5BFB4F808190E012
:100F600008958FEF9FEF089590918A0380918903F0
:100F70002FEF3FEF981748F4E92FF0E0EA5BFB4FC3
:100F8000208130E09F5F90938A03C9010895CF923A
:100F9000DF92EF92FF920F931F93CF93DF937C0129
:100FA000CB018A012091FC03222389F0EB016B0124
:100FB000C40ED51ECC15DD0569F06991D701ED9100
:100FC000FC910190F081E02DC7010995F3CF642FCA
:100FD0000E945005C801DF91CF911F910F91FF90A2
:100FE000EF90DF90CF900895CF93DF931F92CDB70E
:100FF000DEB769832091FC032223F9F020911F04BE
:10100000203258F021E030E0FC013383228390E06D
:1010100080E00F90DF91CF9108958091FD03E82F3C
:10102000F0E0E250FC4F998190838F5F8093FD0345
:1010300080931F0481E090E0ECCF61E0CE01019647
:101040000E945005F7CFCF93C42F91E09093FC03FB
:1010500080931E041092FD0310921F048FE495E00C
:101060000E94F4076C2F8FE495E00E94F40781E062
:101070000E94850691E0811190E0892FCF9108951B
:1010800020918303309184032817390771F49091DC
:10109000810380918203981741F0E0918103F0E091
:1010A000EC50FD4F808190E008958FEF9FEF089501
:1010B000EF92FF920F931F93CF93DF93DC015C9627
:1010C000ED90FC905D97E114F10479F481E090E0FB
:1010D00013969C938E93129790E080E0DF91CF91CE
:1010E0001F910F91FF90EF9008955196ED91FC9113
:1010F000529750968C915097982F90950FB75E9677
:101100002C915E97122F127021FD6095F89420812A
:10111000112319F1282B2083E7012197F1F728E00B
:10112000462F50E0308160FF1AC0382B3083E70132
:101130002197F1F7BA0175956795215089F7112329
:1011400081F08081892380830FBF5C968D919C9173
:101150000197F1F781E090E0C1CF2923DCCF39235B
:10116000E5CF9081892BEFCF2091830330918403C9
:101170002817390771F4809182032091810390E050
:10118000805C9F4F821B910960E470E00E942E2AD0
:10119000089590E080E008952091830330918403C6
:1011A00028173907B9F49091810380918203981729
:1011B00089F0E0918103F0E0EC50FD4F80812091B7
:1011C000810330E02F5F3F4F2F733327209381033C
:1011D00090E008958FEF9FEF089590E080E00895EC
:1011E000CF9360E084E00E94380361E085E00E94D4
:1011F000380361E086E00E94380361E087E00E94E6
:10120000380380E10E94C003C3E444979CF081E16D
:101210000E94C003C4E444976CF084E10E94C003C0
:10122000C5E444973CF085E10E94C003C6E44497BE
:101230000CF0CEE661E084E00E94380360E085E0D7
:101240000E94380361E086E00E94380361E087E095
:101250000E94380380E10E94C00344970CF472C0DE
:1012600081E10E94C00344970CF46EC084E10E94A7
:10127000C00344970CF46AC085E10E94C003449700
:101280000CF4C2E461E084E00E94380361E085E090
:101290000E94380360E086E00E94380361E087E046
:1012A0000E94380380E10E94C00344970CF450C0B0
:1012B00081E10E94C00344970CF44CC084E10E9479
:1012C000C00344970CF448C085E10E94C0034497D2
:1012D0000CF4C8E361E084E00E94380361E085E03B
:1012E0000E94380361E086E00E94380360E087E0F6
:1012F0000E94380380E10E94C00344977CF181E1A1
:101300000E94C003449764F184E10E94C0034497A3
:101310004CF185E10E94C00344970CF4C4E361E002
:1013200084E00E94380361E085E00E94380361E0B8
:1013300086E00E94380361E087E00E9438038C2F2A
:10134000CF910895C9E39ECFC0E39CCFC1E49ACF6B
:10135000C5E3C0CFC6E3BECFC7E3BCCFC1E3DFCF99
:10136000C2E3DDCFC3E3DBCFCF92DF92EF92FF92F8
:101370000F931F93CF93DF9300918F0310919003EE
:1013800080918B0390918C03081719070CF07AC099
:1013900010938C0300938B0380918B0390918C03AB
:1013A000892B09F07CC010938C0300938B03C091B0
:1013B0008D03D0918E03C0908B03D0908C0346E1B7
:1013C000E42EF12C40E050E0BA01C7010E94240154
:1013D0008FEFE81AF80A8EE2E816F10499F7CE01C9
:1013E0008C199D094F970CF485C00D2C000CEE084C
:1013F000FF08012E000C220B330BA90198012C19B8
:101400003D094E095F09A7E1B0E00E9435289E0121
:10141000DD0F440B550B2C193D094E095F090E9445
:10142000162869017A0186E1C80ED11CE11CF11C65
:101430008BE2C816D1040CF03EC0C601D7FC019661
:101440009595879544E150E060E070E00C960E942D
:101450002401C601D7FC01969595879591958195B4
:10146000910944E150E060E070E0C8960E942401D8
:10147000DF91CF911F910F91FF90EF90DF90CF9070
:101480000C94F70380918D0390918E038017910740
:101490000CF082CF10938E0300938D037DCF80914B
:1014A0008D0390918E03892B09F081CF10938E03C9
:1014B00000938D037CCF40E054E660E070E086E16D
:1014C00090E00E94240144E650E060E070E08CE18E
:1014D00090E00E94240140E054E660E070E082E287
:1014E00090E00E94240140E050E064E670E088E271
:1014F00090E0BCCFC090B105D090B205E090B305AC
:10150000F090B4058091D4029091D502A091D602BA
:10151000B091D70288519C4FAF4FBF4F8C159D059E
:10152000AE05BF05E0F4C6E1D0E044E650E0BA0104
:10153000CE010E9424012196CE32D105B1F70E943E
:10154000F70364EF71E080E090E00E94D604C0925F
:10155000D402D092D502E092D602F092D702DF9167
:10156000CF911F910F91FF90EF90DF90CF90089552
:10157000CF92DF92EF92FF92CF93DF93C42ED12CC4
:10158000F12CE12CF22AD62AE82AC6E1D0E0B701F4
:10159000A601CE010E9424012196CE32D105B9F7D1
:1015A000DF91CF91FF90EF90DF90CF900C94F703F5
:1015B000CF93DF9380919F039091A003892B81F4B7
:1015C000C6E1D0E040E050E0BA01CE010E94240123
:1015D0002196CE32D105B1F7DF91CF910C94F7036C
:1015E000DF91CF910895CF93DF93C0919F03D09166
:1015F000A003209771F440E050E0BA01CE010E94B0
:1016000024012196CE32D105B1F7DF91CF910C9410
:10161000F703DF91CF910895CF92DF92EF92FF927F
:101620000F931F93CF93DF93FC01A6A1B7A110974F
:10163000F1F14530E0F5142FEC0180A591E0909395
:10164000FC0380931E041092FD0310921F04ED9181
:10165000FC9111970190F081E02DCD01099580E07A
:101660000E948506612F88A50E94B60510928A0304
:101670008093890300E060E070E0CB011017D1F0A7
:10168000CC24D62EE72EF82E8EA19FA1DC01ED9161
:10169000FC910284F385E02D0995BC01990F880B1C
:1016A000990B6C297D298E299F290F5FE7CF60E078
:1016B00070E0CB01DF91CF911F910F91FF90EF90E0
:1016C000DF90CF900895CF92DF92EF92FF926A0160
:1016D0007B01422F682F88E895E00E940C0B6C215B
:1016E0007D218E219F21CC2059F020E04C2D50E00F
:1016F000C0FC05C02F5F6A01D594C794F7CFC22EF6
:1017000004C09695879577956795CA94D2F7FF9010
:10171000EF90DF90CF900895CF93DF93EC018EA1EF
:101720009FA1009741F128A531E03093FC0320935D
:101730001E041092FD0310921F04DC01ED91FC9138
:101740000190F081E02D099580E00E94850661E01E
:1017500088A50E94B60510928A03809389038EA102
:101760009FA1DC01ED91FC910284F385E02D0995A8
:10177000DF91CF91089580E0FBCF64EF88E895E09A
:101780000E948C0B85FD36C08091A0058E3209F138
:10179000843381F523E04FEF5FEF6FEF70E086EF6A
:1017A0000E94630B4091A10528E030E0241B310921
:1017B00004C095958795779567952A95D2F760939C
:1017C000A2057093A3058093A4059093A50581E0DD
:1017D000089522E04FEF5FEF60E070E086EF0E9437
:1017E000630B6093A6057093A7058093A80590935B
:1017F000A905EDCF80E008952F923F924F925F921E
:101800006F927F928F929F92AF92BF92CF92DF9210
:10181000EF92FF920F931F93CF93DF9300D000D0EE
:101820001F92CDB7DEB7E82E6B834D8319010E945E
:1018300008054B015C01FD80D12C1C822F2D30E06E
:101840003A8329832801712C612C81E08093FC0369
:10185000E0921E041092FD0310921F046B818FE42E
:1018600095E00E94F40781E00E94850691E0909344
:10187000FC031092FD0310921F046F2D20E22F1520
:1018800008F460E28E2D0E94B605C82E10928A03DD
:101890008093890380918A03C816E1F00115110530
:1018A00071F48FE495E00E94B407F1013C81E30FED
:1018B000F11D37FDFA9580833F5F3C83EBCF0E949B
:1018C0000805681979098A099B0964157505860553
:1018D000970538F38D81D80EF81AD81608F4B5CFCD
:1018E00001151105C1F00E940805681979098A09D6
:1018F0009B0930E020E0601771078207930758F0DA
:101900002C81822F220F990B29813A81821793070C
:1019100014F43FEF3C838C810F900F900F900F9049
:101920000F90DF91CF911F910F91FF90EF90DF907B
:10193000CF90BF90AF909F908F907F906F905F906F
:101940004F903F902F900895CF92DF92EF92FF92A9
:101950000F931F93CF93DF931F92CDB7DEB7F82E6F
:10196000E62EC42ED22E08EE13E09E012F5F3F4FCD
:1019700041E00E94FC0B81E090E001C0880FCA9416
:10198000EAF74981DD2081F0482B49836E2D8F2DA8
:101990000E9423080F90DF91CF911F910F91FF902C
:1019A000EF90DF90CF90089580954823EECFBF92BF
:1019B000CF92DF92EF92FF920F931F93CF93DF931B
:1019C0001F92CDB7DEB7F82EE62EC42EB22ED02E43
:1019D00008EE13E09E012F5F3F4F41E00E94FC0B99
:1019E000882371F18C2D8B19990BAC014F5F5F4FE0
:1019F00081E090E002C0880F991FBA94E2F7019746
:101A0000042E01C0880F0A94EAF70D2D01C0000FC3
:101A10004A95EAF7482F4095998149238023482B1E
:101A200049836E2D8F2D0E9423080F90DF91CF9157
:101A30001F910F91FF90EF90DF90CF90BF9008958E
:101A400080E0F3CF0C94E42A0C94E42A1F93CF9304
:101A5000DF9300D000D0CDB7DEB78CE694E00E94D3
:101A600067028CE694E00E94670210E08A3379F006
:101A7000E1E0F0E0EC0FFD1FE10FF11D17FDFA951D
:101A800080831F5F8CE694E00E946702EFCFCE0157
:101A900001960E949426182F8CE694E00E9467021B
:101AA0008053990B8230910520F4682F812F0E947A
:101AB00038038CE694E00E9467028A3011F08D3082
:101AC000C1F78CE694E00E947B028A3021F48CE618
:101AD00094E00E9467020F900F900F900F90DF919B
:101AE000CF911F910895FB0101900020E9F73197F4
:101AF000AF01461B570BDC01ED91FC910280F38195
:101B0000E02D0994CF93DF93682F85EB95E00E9439
:101B10005808EC016DE471E085EB95E00E94730DCF
:101B20008C0F9D1FDF91CF9108958F929F92AF925E
:101B3000BF92EF92FF920F931F93CF93DF93CDB796
:101B4000DEB7A1970FB6F894DEBF0FBECDBF7C0104
:101B5000FA01CB0119A2223008F42AE08E010F5DB0
:101B60001F4F822E912CB12CA12CBF01A5019401F5
:101B70000E94F427F901CA016A300CF5605DD801B2
:101B80006E938D01232B242B252B79F790E080E099
:101B9000109721F0BD01C7010E94730DA1960FB6E9
:101BA000F894DEBF0FBECDBFDF91CF911F910F9193
:101BB000FF90EF90BF90AF909F908F900895695CD9
:101BC000DECFCF92DF92EF92FF92CF93DF936C0143
:101BD000990FEE08FF08F7FE23C06DE285EB95E054
:101BE0000E945808EC0144275527BA014C195D0999
:101BF0006E097F092AE085EB95E00E94950DC80FDC
:101C0000D91F6DE471E085EB95E00E94730D8C0F98
:101C10009D1FDF91CF91FF90EF90DF90CF900895BF
:101C20002AE0B701A60185EB95E00E94950DEC0135
:101C3000E8CF8F929F92AF92BF92EF92FF920F9355
:101C40001F93CF93DF93922FF8010091D40210914C
:101C5000D5022091D6023091D7020E0F1F1F211DF1
:101C6000311D8090B1059090B205A090B305B09061
:101C7000B405081519052A053B0508F0A3C0092F6E
:101C8000142FE62EF82EC091D002D091D102C63189
:101C9000D10509F0A2C0A6E1AA2EB12C40E050E087
:101CA000BA01C5010E9424018FEFA81AB80A8EE27A
:101CB000A816B10499F728E28E2D622F0E940E2AF1
:101CC00090E0B0E0A0E08824982EA92EBA2E812FB3
:101CD0000E940E2A882A8F2D0E940E2AA82A802F61
:101CE0000E940E2AB501A401782B8BE290E00E949D
:101CF000240124E18E2D622F0E940E2A90E0B0E094
:101D0000A0E08824982EA92EBA2E812F0E940E2A98
:101D1000882A8F2D0E940E2AA82A802F0E940E2A20
:101D2000B501A401782B8CE290E00E94240126E00A
:101D30008E2D622F0E940E2A90E0B0E0A0E0882451
:101D4000982EA92EBA2E812F0E940E2A882A8F2D16
:101D50000E940E2AA82A802F0E940E2AB501A401F3
:101D6000782B8DE290E00E942401412F50E070E03A
:101D700060E05E296F29702B86E190E00E942401CB
:101D8000CE010E94E10D8091D0029091D102019686
:101D90008E3291050CF089C19093D1028093D002CC
:101DA0000E94F7038091B1059091B205A091B3050F
:101DB000B091B4058093D4029093D502A093D6023B
:101DC000B093D702DF91CF911F910F91FF90EF90C9
:101DD000BF90AF909F908F900895C731D10509F0C3
:101DE00074C056E1A52EB12C40E050E0BA01C50107
:101DF0000E9424018FEFA81AB80A8EE2A816B10437
:101E000099F728E28E2D622F0E940E2A90E0B0E012
:101E1000A0E08824982EA92EBA2E812F0E940E2A87
:101E2000882A8F2D0E940E2AA82A802F0E940E2A0F
:101E3000B501A401782B8CE290E00E94240124E1FA
:101E40008E2D622F0E940E2A90E0B0E0A0E0882440
:101E5000982EA92EBA2E812F0E940E2A882A8F2D05
:101E60000E940E2AA82A802F0E940E2AB501A401E2
:101E7000782B8DE290E00E94240126E08E2D622FC7
:101E80000E940E2A90E0B0E0A0E08824982EA92EAF
:101E9000BA2E812F0E940E2A882A8F2D0E940E2A88
:101EA000A82A802F0E940E2AB501A401782B86E172
:101EB00090E00E942401412F50E070E060E05E2934
:101EC0006F29702B87E190E059CFC831D10509F017
:101ED00074C0A6E1AA2EB12C40E050E0BA01C501C1
:101EE0000E9424018FEFA81AB80A8EE2A816B10446
:101EF00099F728E28E2D622F0E940E2A90E0B0E022
:101F0000A0E08824982EA92EBA2E812F0E940E2A96
:101F1000882A8F2D0E940E2AA82A802F0E940E2A1E
:101F2000B501A401782B8EE290E00E94240124E107
:101F30008E2D622F0E940E2A90E0B0E0A0E088244F
:101F4000982EA92EBA2E812F0E940E2A882A8F2D14
:101F50000E940E2AA82A802F0E940E2AB501A401F1
:101F6000782B86E190E00E94240126E08E2D622FDE
:101F70000E940E2A90E0B0E0A0E08824982EA92EBE
:101F8000BA2E812F0E940E2A882A8F2D0E940E2A97
:101F9000A82A802F0E940E2AB501A401782B87E180
:101FA00090E00E942401412F50E070E060E05E2943
:101FB0006F29702B88E190E0E1CECE0149974597DB
:101FC00008F0DECE56E1A52EB12C40E050E0BA017B
:101FD000C5010E9424018FEFA81AB80A8EE2A81644
:101FE000B10499F728E28E2D622F0E940E2A90E00C
:101FF000B0E0A0E08824982EA92EBA2E812F0E944E
:102000000E2A882A8F2D0E940E2AA82A802F0E942D
:102010000E2AB501A401782BCE0103970E9424015A
:1020200024E18E2D622F0E940E2A90E0B0E0A0E005
:102030008824982EA92EBA2E812F0E940E2A882A33
:102040008F2D0E940E2AA82A802F0E940E2AB501E9
:10205000A401782BCE0102970E94240126E08E2D48
:10206000622F0E940E2A90E0B0E0A0E08824982E13
:10207000A92EBA2E812F0E940E2A882A8F2D0E9407
:102080000E2AA82A802F0E940E2AB501A401782BBF
:10209000CE0101970E942401412F50E070E060E0E2
:1020A0005E296F29702BCE0169CE86E190E074CE57
:1020B0003F924F925F926F927F928F929F92AF92D8
:1020C000BF92CF92DF92EF92FF920F931F93CF9325
:1020D000DF93CDB7DEB728970FB6F894DEBF0FBEFB
:1020E000CDBFF62E882309F488C08130B1F4009169
:1020F0009F031091A0030115110509F07EC040E077
:1021000050E0BA01C8010E9424010F5F1F4F063141
:102110001105A9F70E94F70370C08230F1F4809195
:10212000910380909703912CB12CA12C54019924F8
:102130008824B82A80919303882A80919503982A4D
:1021400010E000E0B501A401C8010E9424010F5F66
:102150001F4F06311105B1F7DDCF833009F08CC078
:102160008090B1059090B205A090B305B090B405F1
:102170008091C8029091C902A091CA02B091CB028D
:102180000196A11DB11D88159905AA05BB05A8F5E5
:102190002091CE023091CF028091CC029091CD025D
:1021A0002130310509F056C001969093CD028093FD
:1021B000CC028F3F910524F01092CF021092CE02F4
:1021C00010E000E04091CC0250E070E060E0742F3D
:1021D000662755274427C8010E9424010F5F1F4F1F
:1021E0000631110579F70E94F7038092C802909298
:1021F000C902A092CA02B092CB02FF2029F051E09E
:10220000F51295C10E94D80A81E090E09093A00356
:1022100080939F0381E08093F30237E0F3123AC486
:102220008093F20228960FB6F894DEBF0FBECDBFA2
:10223000DF91CF911F910F91FF90EF90DF90CF90A2
:10224000BF90AF909F908F907F906F905F904F90D6
:102250003F900895232B09F0B3CF01979093CD02BF
:102260008093CC0202970CF0ABCF81E090E090938A
:10227000CF028093CE02A4CF843009F06BC040918E
:10228000D2025091D3022091E0023091E102CA01C2
:102290008D599F4F82179307CCF0865C91092817C0
:1022A0003907A4F063E6649FC001659F900D112477
:1022B0004091E4025091E502840F951F64E670E0BE
:1022C0000E942E2A7093D3026093D2028091D20290
:1022D0009091D302AC01485B5B40241735077CF436
:1022E00010E000E040E05FEF6FEF70E0C8010E9497
:1022F00024010F5F1F4F0B301105A1F70BCF88543E
:10230000944F821793077CF40BE010E040E05FEFFE
:102310006FEF70E0C8010E9424010F5F1F4F06316C
:102320001105A1F7F7CE10E000E040E054E660E0D0
:1023300070E0C8010E9424010F5F1F4F0631110594
:10234000A1F78091E0029091E1029093D3028093F3
:10235000D202E0CE853009F051C0412C512C32011F
:1023600010E000E06E0129E0C20ED11C8090D8027E
:102370009090D902A090DA02B090DB0220915D0526
:1023800030915E0550E040E0C301B2010E94162882
:10239000C901880D991D0E94BD016D837E838F83C5
:1023A0009887DE011596ED91F0E0EA56FF4F2491F3
:1023B000CD010197FC012083CA16DB06A1F74D81F0
:1023C0005E816F817885C8010E9424010F5F1F4FD5
:1023D000FFEF6F1A7F0A0631110541F60E94F703DD
:1023E00028E7820E911CA11CB11C8092D802909209
:1023F000D902A092DA02B092DB02FFCE863009F059
:102400003FC34090B1055090B2056090B305709005
:10241000B4058091C8029091C902A091CA02B091FE
:10242000CB02A3019201281B390B4A0B5B0BDA018B
:10243000C9014E97A105B10508F4DFCE20919103A3
:102440009091930380919503809097030091C60229
:102450001091C702680131E0C31AD1084AE0C416DE
:10246000D104B8F5912CB12CA12C540199248824C5
:10247000B22A892A982AB501A401C8010E94240120
:10248000B501A40185E190E0801B910B0E9424011D
:1024900040E050E0BA01C6010E94240140E050E053
:1024A000BA0186E190E0801B910B0E9424010B3061
:1024B0001105B4F11092C7021092C6020E94F703F0
:1024C0004092C8025092C9026092CA027092CB0236
:1024D00094CE0B30110501F5912CB12CA12C540197
:1024E00099248824B22A892A982AB501A4018BE06C
:1024F00090E00E942401B501A4018AE090E00E94CE
:102500002401B501A40190E080E00E942401B501FE
:10251000A40185E190E0BACF101611060CF4B8CFF3
:102520000F5F1F4F1093C7020093C602C7CF82E010
:10253000F8120BC020919103409193036091950391
:10254000809197030E94B80A5FCE93E0F9125EC0B3
:102550008090B1059090B205A090B305B090B405FD
:102560008091D4029091D502A091D602B091D70269
:102570000196A11DB11D88159905AA05BB0508F096
:1025800043CE2091CE023091CF028091CC02909127
:10259000CD022130310551F501969093CD02809303
:1025A000CC028F3F910524F01092CF021092CE0200
:1025B00006E110E04091CC0250E070E060E0742F42
:1025C000662755274427C8010E9424010F5F1F4F2B
:1025D0000E32110579F70E94F7038092D40290928F
:1025E000D502A092D602B092D7020ECE232B01F7CD
:1025F00001979093CD028093CC020297CCF681E0B4
:1026000090E09093CF028093CE02D2CFE4E0FE120E
:10261000E4C04090B1055090B2056090B305709051
:10262000B4058091D4029091D502A091D602B091C8
:10263000D7028A5B9F4FAF4FBF4F84159505A60504
:10264000B70508F0E1CDE09091030091930330903D
:1026500095031091970366E1C62ED12C40E050E01F
:10266000BA01C6010E942401FFEFCF1ADF0A2EE251
:10267000C216D10499F7C090D002D090D102C60101
:102680004797079708F057C02AE08E2D622F0E94C7
:102690000E2A382F812F0E940E2A90E0B0E0A0E091
:1026A0005C0199248824B32A802F0E940E2A882A4C
:1026B000832D0E940E2A982AB501A401C601019714
:1026C0000E942401B501A401C60107960E942401BD
:1026D000B501A401C6010F960E942401812E912C00
:1026E000B12CA12C540199248824BE28802A932837
:1026F000B501A401C6010E942401B501A401C601CF
:1027000008960E942401B501A401C60140960E94CA
:1027100024013FEFC31AD30AD092D102C092D00253
:102720000E94F7034092D4025092D5026092D602E2
:102730007092D70269CD4EE1C416D10409F046C0AB
:102740002AE08E2D622F0E940E2A382F812F0E94A0
:102750000E2A90E0B0E0A0E05C0199248824B32A1E
:10276000802F0E940E2A882A832D0E940E2A982AE2
:10277000B501A4018DE290E00E942401B501A401FD
:102780008DE190E00E942401B501A40185E290E072
:102790000E942401812E912CB12CA12C540199244A
:1027A0008824BE28802A9328B501A40186E190E000
:1027B0000E942401B501A4018EE190E00E94240151
:1027C000B501A40186E290E00E94240187E190E037
:1027D0009093D1028093D002A3CF55E0F5120DC0A3
:1027E00006E410E0209191034091930360919503DA
:1027F000809197030E94190E07CD86E0F8126CC0F5
:102800004091D2025091D3022091E0023091E10236
:10281000CA018D599F4F82179307CCF0865C9109AE
:1028200028173907A4F063E6649FC001659F900DE7
:1028300011244091E4025091E502840F951F64E653
:1028400070E00E942E2A7093D3026093D20280918E
:10285000D2029091D302AC01485B5B40241735074C
:102860008CF409E110E040E054E664E670E0C80151
:102870000E9424010F5F1F4F00321105A1F70E9433
:10288000F703C2CC8854944F821793077CF405E277
:1028900010E040E054E664E670E0C8010E942401C4
:1028A0000F5F1F4F0C321105A1F7E9CF06E110E0D1
:1028B00040E050E0BA01C8010E9424010F5F1F4FA1
:1028C0000E321105A9F78091E0029091E1029093F8
:1028D000D3028093D202D3CF97E0F91203C00E94B3
:1028E000B40992CCE8E0FE1275C08EE00E94C003ED
:1028F0008090B1059090B205A090B305B090B4055A
:102900004091D4025091D5026091D6027091D702C5
:102910004C505E4F6F4F7F4F481559056A057B0538
:1029200008F072CCB0E0A0E09C01AD01205D324027
:1029300041095109A4E1B0E00E94352822E830E0C5
:1029400040E050E00E94162829013A01F8E14F0EBC
:10295000511C611C711C06E110E040E050E0BA011E
:10296000C8010E9424010F5F1F4F0E321105A9F705
:1029700040E050E0BA0186E190E00E94240140E08E
:1029800050E06CE370E087E190E00E94240144E6AF
:1029900050E060E070E08DE290E00E94240108E1E8
:1029A00010E040E050E060E073E0C8010E942401C4
:1029B0000F5F1F4F0D321105A1F7C20148974597D0
:1029C00008F009CE48E258E268E270E0C2010E94D5
:1029D000240101CE29E0F21217CC412C512C86E1C2
:1029E000682E712C06E110E06E0135E0C30ED11C9B
:1029F0008090D8029090D902A090DA02B090DB02C9
:102A000020915D0530915E0550E040E0C301B201C8
:102A10000E941628C901880D991D0E94BD01698375
:102A20007A838B839C83DE011196ED91F0E0EA5668
:102A3000FF4F2491CD010197FC012083CA16DB06CC
:102A4000A1F749815A816B817C81C8010E942401D0
:102A50000F5F1F4FFFEF6F1A7F0A0E32110541F60D
:102A60000E94F70328E7820E911CA11CB11C8092E2
:102A7000D8029092D902A092DA02B092DB02C4CBC3
:102A80006111BDCB81E090E09093A00380939F0300
:102A90008093F3021092F202C5CB462F50E070E013
:102AA00060E02AE00C94950D0F931F93CF93DF9372
:102AB000EC010E94730D8C016DE471E0CE010E9467
:102AC000730D800F911FDF91CF911F910F9108958A
:102AD0000C94730D809197039091980388519C4FAB
:102AE0009093980380939703809195039091960318
:102AF00088519C4F90939603809395038091930304
:102B00009091940388519C4F9093940380939303E6
:102B1000809191039091920388519C4F90939203DE
:102B20008093910360E571E085EB95E00E94681564
:102B3000409197035091980370E060E02AE085EBA4
:102B400095E00E94950D65E571E085EB95E00E94AA
:102B50006815409195035091960370E060E02AE07B
:102B600085EB95E00E94950D69E571E085EB95E0B8
:102B70000E946815409193035091940370E060E0C7
:102B80002AE085EB95E00E94950D6DE571E085EBFF
:102B900095E00E946815409191035091920370E076
:102BA00060E02AE085EB95E00E94950D61E671E01A
:102BB00085EB95E00E9454158091970390919803BE
:102BC000885E934090939803809397038091950338
:102BD00090919603885E934090939603809395031B
:102BE0008091930390919403885E93409093940313
:102BF000809393038091910390919203885E934018
:102C000090939203809391030895CF93DF938EE086
:102C10000E94C003EC0163E671E085EB95E00E9441
:102C2000681560919D0385EB95E00E944D1569E65E
:102C300071E085EB95E00E94681560919E0385EB3D
:102C400095E00E944D156EE671E085EB95E00E94DF
:102C5000681560919B0385EB95E00E944D1563E735
:102C600071E085EB95E00E94681560919C0385EB0F
:102C700095E00E944D1568E771E085EB95E00E94B4
:102C800068156091A10385EB95E00E944D156DE7F5
:102C900071E085EB95E00E9468159E01DD0F440B05
:102CA000550B205D324041095109A9E5B0E00E9471
:102CB000352822E830E040E050E00E941628CA01A2
:102CC000B901665F7F4F8F4F9F4F85EB95E00E9464
:102CD0004D1561E671E085EB95E0DF91CF910C94A5
:102CE00054150E946D2B85ED8093BC008091680483
:102CF00090916904A0916A04B0916B040796A11D9C
:102D0000B11D23E0B695A795979587952A95D1F79C
:102D10002091BC0024FD03C01092660408954091E8
:102D200068045091690460916A0470916B04452BAA
:102D3000462B472B69F30097A105B10541F025E328
:102D40002A95F1F700000197A109B109E1CF80911F
:102D500067040C9495050C94E62762E871E08CE614
:102D600094E00E9454156091970384E090E00E94E3
:102D7000AB166091950385E090E00E94AB166091E0
:102D8000930386E090E00E94AB166091910387E088
:102D900090E00E94AB1660919B0382E090E00E945D
:102DA000AB1660919C0383E090E00E94AB166091AB
:102DB0009E0381E090E00E94AB1660919D0390E03D
:102DC00080E00C94AB160C94DE2762E971E08CE68F
:102DD00094E00E94541584E090E00E94E31690E095
:102DE000909398038093970385E090E00E94E31608
:102DF00090E0909396038093950386E090E00E9484
:102E0000E31690E0909394038093930387E090E01F
:102E10000E94E31690E0909392038093910382E0E6
:102E200090E00E94E31680939B0383E090E00E9471
:102E3000E31680939C0381E090E00E94E316809368
:102E40009E0390E080E00E94E31680939D03089526
:102E50008F929F92AF92BF92CF92DF92EF92FF92AA
:102E60000F931F930E9408056093B1057093B205FC
:102E70008093B3059093B4058091F302882309F4FD
:102E800054C008EE13E02AE735E04EE06BE3809192
:102E900079050E94FC0B20917A0530917B05322741
:102EA000232732273093EB022093EA0280917C059E
:102EB00090917D059827892798279093E902809320
:102EC000E80240917E0550917F05542745275427FD
:102ED0005093E7024093E6024091820550918305AA
:102EE0005427452754275093E5024093E40240912C
:102EF0008405509185055427452754275093E302B4
:102F00004093E2024091860550918705542745275A
:102F100054275093E1024093E0023093DF02209364
:102F2000DE029093DD028093DC028091F20288231E
:102F300009F488C008EE13E022E735E046E063E0DC
:102F4000809171050E94FC0B80917805813031F4ED
:102F500041E062E0809171050E9423088091720532
:102F6000909173059827892798279093F102809371
:102F7000F002E0907605F0907705FE24EF24FE2421
:102F8000F092EF02E092EE02209174053091750507
:102F90003227232732273093ED022093EC02BC0125
:102FA000990F880B990B0E94C1264B015C01B70158
:102FB000FF0C880B990B0E94C126A50194010E9469
:102FC000CF282CEE3FE24BE35DE30E944F286B01DC
:102FD0007C0120E030E0A9010E94BA2687FF0AC0E8
:102FE0002BED3FE049EC50E4C701B6010E945028A8
:102FF0006B017C012BED3FE049EC50E4C701B601C9
:103000000E94FD29181654F42BED3FE049EC50E4E2
:10301000C701B6010E944F286B017C0120E030E01F
:1030200044E353E4C701B6010E9420272BED3FE0A3
:1030300049E450E40E942E290E94A0297093900335
:1030400060938F030E94BD0B80919405909195052C
:103050002091A6053091A7054091A8055091A9059A
:10306000281B390B41095109A0919205B091930594
:103070000E9435286B017C018FE0F594E794D7948A
:10308000C7948A95D1F760919C0570919D05072E94
:10309000000C880B990B2BE0660F771F881F991F78
:1030A0002A95D1F720919E0530919F05032E000CA3
:1030B000440B550B2C0D3D1D4E1D5F1D0E94162807
:1030C000C20ED31EE41EF51EC092AA05D092AB0517
:1030D000E092AC05F092AD05A7019601285F3F4F45
:1030E0004F4F5F4FCA01B90134E0959587957795A9
:1030F00067953A95D1F70E94C1262DEC3CEC4CEC3B
:103100005DE30E9420270E94A02970939A03609398
:1031100099031F910F91FF90EF90DF90CF90BF9098
:10312000AF909F908F900C94BD0B1F920F920FB693
:103130000F9211242F933F934F935F936F937F933D
:103140008F939F93AF93BF93EF93FF938CE694E09D
:103150000E94A902FF91EF91BF91AF919F918F9132
:103160007F916F915F914F913F912F910F900FBE83
:103170000F901F9018951F920F920FB60F92112467
:103180002F938F939F93EF93FF93E0917C04F091A3
:103190007D048081E0918204F091830482FD1BC054
:1031A0009081809185048F5F8F73209186048217B0
:1031B00041F0E0918504F0E0E459FB4F958F809356
:1031C0008504FF91EF919F918F912F910F900FBEEA
:1031D0000F901F9018958081F4CF1F920F920FB619
:1031E0000F9211242F933F938F939F93AF93BF938D
:1031F0008091790390917A03A0917B03B0917C0335
:103200003091780323E0230F2D3758F50196A11D47
:10321000B11D209378038093790390937A03A09350
:103220007B03B0937C0380917D0390917E03A091FA
:103230007F03B09180030196A11DB11D80937D0392
:1032400090937E03A0937F03B0938003BF91AF91CF
:103250009F918F913F912F910F900FBE0F901F90D4
:10326000189526E8230F0296A11DB11DD2CF1F92FB
:103270000F920FB60F9211242F933F934F935F93AA
:103280006F937F938F939F93AF93BF93EF93FF932E
:103290008091B900887F803609F44AC0F0F5883201
:1032A00009F4A7C018F5803109F49BC0B8F488234D
:1032B00009F4F9C0883009F494C0FF91EF91BF91EF
:1032C000AF919F918F917F916F915F914F913F91BE
:1032D0002F910F900FBE0F901F901895883109F411
:1032E00088C0803251F78093440414C0803409F4BC
:1032F0009DC040F48033B9F38833F9F680934404D9
:1033000085ECB0C0803509F485C0883509F496C0D5
:10331000883499F60E947316D0CF883909F48CC08E
:1033200038F5883729F050F4883611F0803729F6BF
:1033300083E0809366041092770357C0883809F4BD
:103340007BC0803919F0803809F0B7CF80917703BE
:10335000803208F071C0E091770381E08E0F809396
:1033600077038091BB00F0E0E95AFC4F80833DC0B9
:10337000803B39F0E0F4803A09F479C0883A09F0EA
:103380009CCF84E0809366041092560310925503FC
:10339000E0918703F091880309958091550381118D
:1033A0000FC081E0809355031092350309C0803C23
:1033B00009F4A6CF883C09F4A3CF883B09F07DCF60
:1033C000E091560381E08E0F80935603F0E0EB5CB2
:1033D000FC4F80818093BB009091560380915503F0
:1033E00029C0809141048093BB0085EC8093BC0090
:1033F00064CF9091430480914204981758F5E0916E
:10340000430481E08E0F80934304F0E0E05EFB4FC5
:103410008081E9CFE091430481E08E0F80934304E3
:103420008091BB00F0E0E05EFB4F8083909143040D
:10343000809142049817C8F285E8D8CFE091430400
:1034400081E08E0F809343048091BB00F0E0E05E4A
:10345000FB4F80838091450481115CCF81E0809394
:10346000400484EA8093BC001092660426CF85EC69
:103470008093BC001092660480917703803230F410
:10348000E0917703F0E0E95AFC4F108260917703F6
:1034900070E0E0918503F091860387E593E009955C
:1034A000109277030ACF1092440434CF1F920F92E8
:1034B0000FB60F9211242F933F934F935F936F9307
:1034C0007F938F939F93AF93BF93EF93FF93E0917D
:1034D0008303F0918403309749F0A685B7858585ED
:1034E000968D91FF14C09C918923A1F4FF91EF91D7
:1034F000BF91AF919F918F917F916F915F914F910C
:103500003F912F910F900FBE0F901F9018959C9197
:10351000892361F7A389B4899C9185898095892342
:103520008C93868997890197F1F7608D718DA685B7
:10353000B785558538E020E0CB010197F1F7822F60
:1035400090E095958795282F4C91452309F02068A8
:10355000315091F7868D81FD20958091820390E016
:1035600001968F73992730918103381799F0A091B4
:103570008203B0E0AC50BD4F2C9380938203828DC8
:10358000938D0197F1F7A389B4898C919589892B43
:103590008C93ACCF868D8160868FF1CFCF931092C4
:1035A0006F0410926E0488EE93E0A0E0B0E0809388
:1035B000700490937104A0937204B09373042BE091
:1035C00031E030936D0420936C0425EC30E03093AF
:1035D00079042093780424EC30E030937B0420932A
:1035E0007A0420EC30E030937D0420937C0421ECBD
:1035F00030E030937F0420937E0422EC30E030935F
:1036000081042093800426EC30E0309383042093DF
:1036100082041092850410928604109287041092FE
:10362000880410925205109251058093530590938F
:103630005405A0935505B09356052DE131E0309324
:10364000500520934F0510920F051092100510920F
:103650001105109212051092130510921405109284
:103660001505109216051092170510921805109264
:10367000190510921A0510921B0510921C05109244
:103680001D0510921E051092B8051092B705809383
:10369000B9059093BA05A093BB05B093BC058FE321
:1036A00091E09093B6058093B5051092CC051092E9
:1036B000CB051092CE051092CD051092D005109238
:1036C000CF051092D2051092D1056091D3056E7F7F
:1036D0006D7F6093D3056695617081E0682782E015
:1036E0000E94380361E082E00E948403EEEDF1E085
:1036F000E491E093C505EAECF1E0E491F0E0EE0F2F
:10370000FF1FE254FE4F859194919093C7058093DB
:10371000C60560E083E00E9484038091D30581FDAB
:1037200004C061E083E00E943803C3E0C093C10598
:10373000EFEDF1E0E491E093C205EBECF1E0E49110
:10374000F0E0EE0FFF1FEC54FE4F859194919093A3
:10375000C4058093C3050E9408056093B10570936A
:10376000B2058093B3059093B4051092A005109212
:10377000A1051092A2051092A3051092A405109223
:10378000A5051092A6051092A7051092A805109203
:10379000A9051092AA051092AB051092AC051092E3
:1037A000AD05EAE8F5E086E1DF011D928A95E9F7CB
:1037B0008FE495E09093AF058093AE0587E7809303
:1037C000B0058FE291E0909389058093880588E6A3
:1037D000809379058EE18093710510925C051092BB
:1037E000630510926A0510926B0510926C05109299
:1037F0006D05C093690581E08093660510926705A9
:1038000092E09093680580935B0588EB90E090933D
:10381000600580935F050E94482A90936505809318
:103820006405009799F128EBFC0111922A95E9F7BC
:103830008EE290E090935E0580935D0588E090E0D5
:10384000909362058093610580915C05882341F027
:1038500061E088E00E94840360E088E00E94380311
:10386000E0EDF1E0E491F0E0EE0FFF1FE254FE4FD7
:103870008591949190936F0580936E05E4EEF1E04D
:10388000E491E0937005CF910C94080510926005C7
:1038900010925F0510925E0510925D05CFCFCF9319
:1038A000DF93CDB7DEB76D970FB6F894DEBF0FBECE
:1038B000CDBF789484B5826084BD84B5816084BDB9
:1038C00085B5826085BD85B5816085BD80916E00BE
:1038D000816080936E0010928100809181008260EF
:1038E000809381008091810081608093810080912C
:1038F00080008160809380008091B100846080931B
:10390000B1008091B00081608093B00080917A0016
:10391000846080937A0080917A00826080937A003C
:1039200080917A00816080937A0080917A0080682B
:1039300080937A001092C10010924B0510924C05B2
:1039400010924D0510924E0510920B0510920C0529
:1039500010920D0510920E050E9408056B017C0166
:103960004B015C0128EB820E2BE0921EA11CB11CC6
:103970000E9408056C157D058E059F0528F08616AA
:103980009706A806B906A0F768EE73E080E090E01D
:103990000E94D6040E9495010E94080560930B05C1
:1039A00070930C0580930D0590930E0561E172E014
:1039B0008CE694E00E9468150E9408056B017C016A
:1039C0004B015C013AE0830E911CA11CB11C0E94CA
:1039D00008056C157D058E059F0528F0861697064F
:1039E000A806B906A0F781E080931F050E9408058C
:1039F00060930B0570930C0580930D0590930E0555
:103A000062E272E08CE694E00E9468150E949501E3
:103A10001092D0051092CF051092CE051092CD05D0
:103A20001092CC051092CB0585E690E09093D205DC
:103A30008093D1059091C105963108F047C021E2ED
:103A400030E03093CC052093CB0523E630E0309373
:103A5000CE052093CD0522E430E03093D0052093AD
:103A6000CF052091680084E0983048F031E09E3026
:103A700008F430E081E001C0880F3A95EAF7822B24
:103A8000809368002DE630E0983050F02BE630E06F
:103A90009E3030F02CE630E0963110F030E020E03F
:103AA0003093C9052093C805292F30E0983008F0DD
:103AB000AEC081E001C0880F9A95EAF78093CA05ED
:103AC0008091D1059091D2050197F1F78091CF05B2
:103AD0009091D005892B49F1E0918303F091840303
:103AE00085E0E53BF80709F1309739F0A389B489FF
:103AF0009C918589809589238C938091D3058E7FB5
:103B00008093D305109282031092810385EB95E098
:103B10009093840380938303E091C805F091C905D5
:103B200080819091CA05892B808360E08EE00E949D
:103B3000840360E08FE00E94840362E080E10E94E1
:103B4000840362E081E10E94840362E084E10E94D8
:103B5000840362E085E10E94840361E084E00E94C6
:103B6000840361E085E00E94840361E086E00E94B6
:103B7000840361E087E00E94840360E089E00E94A2
:103B8000840360E08AE00E94840361E08CE00E948C
:103B9000840361E08BE00E94840361E08DE00E9479
:103BA0008403809161059091620597FD08C061E0F2
:103BB0000E94840360E0809161050E94380381E0E7
:103BC00080935C050E94F70360916305653691F16F
:103BD0002091640530916505615031F170E08FEFFF
:103BE00094E60E941A2AF90140915F055091600500
:103BF000CF01821B930B84179507C8F44081469F21
:103C0000C001479F900D112490833196EDCF9E30D7
:103C100040F42850310981E001C0880F2A95EAF765
:103C20004DCF2E503109F7CF70E060E0DCCF85E654
:103C30008093630564E670E080E090E00E94D60423
:103C40000E94E51610928A03109289031092FD03D8
:103C500010921F040E94770586E592E090938803F6
:103C60008093870387E592E0909386038093850392
:103C700020E045E06AE6809179050E94A40C21E0ED
:103C800041E067E3809179050E94A40C20E046E0C2
:103C90006BE6809179050E94A40C69E272E085EBE5
:103CA00095E00E94541501E023E042E06BE680912C
:103CB00079050E94D70C00E022E044E06BE180919E
:103CC00079050E94D70C22E044E06CE180917905EF
:103CD0000E94D70C20E046E06BE6809179050E94B7
:103CE000A40C40E760E0809171050E94230840E247
:103CF00061E0809171050E94230841E062E08091BB
:103D000071050E94230881E08093780508EE13E096
:103D100022E735E043E06AE0809171050E94FC0BE8
:103D2000833071F480917205883451F48091730569
:103D3000843331F4809174056FE971E0833311F0BD
:103D40006EEB71E085EB95E00E94541565E472E03E
:103D500085EB95E00E94541508EE13E09E012F5F5D
:103D60003F4F41E065E7809179050E94FC0B882375
:103D700039F089818E7790E09595879580937A05C3
:103D800080917A0569ED71E0843311F067EF71E09D
:103D900085EB95E00E94541560ED88E895E00E945F
:103DA0008C0B853539F063E672E08CE694E00E9476
:103DB0005415FFCF22E04FEF5FEF60E070E08AEA3A
:103DC0000E94630B2B0122E04FEF5FEF60E070E099
:103DD0008CEA0E94630B6A837B838C839D8322E041
:103DE0004FEF5FEF60E070E08EEA0E94630B6E833E
:103DF0007F838887998722E04FEF5FEF60E070E074
:103E000080EB0E94630B6A877B878C879D8722E00B
:103E10004FEF5FEF60E070E082EB0E94630B6E8714
:103E20007F87888B998B22E04FEF5FEF60E070E037
:103E300084EB0E94630B6A8B7B8B8C8B9D8B22E0C7
:103E40004FEF5FEF60E070E086EB0E94630B6E8BDC
:103E50007F8B888F998F22E04FEF5FEF60E070E0FB
:103E600088EB0E94630B6A8F7B8F8C8F9D8F22E083
:103E70004FEF5FEF60E070E08AEB0E94630B4B0155
:103E800022E04FEF5FEF60E070E08CEB0E94630B8D
:103E90006B0122E04FEF5FEF60E070E08EEB0E947D
:103EA000630B50928B0540928A05EA81FB81F09367
:103EB0008D05E0938C052E813F8130938F052093F3
:103EC0008E05EA85FB85F0939105E09390052E859C
:103ED0003F853093930520939205EA89FB89F093FF
:103EE0009505E09394052E893F893093970520939B
:103EF0009605EA8DFB8DF0939905E09398059092D5
:103F00009B0580929A05D0929D05C0929C05709366
:103F10009F0560939E0546EB60EE88E895E00E9461
:103F2000750783E08093A105E6EAF3E0119223E0B0
:103F3000E63FF207D9F780919D038B3040F081E096
:103F400080939D0361E090E080E00E94AB16809139
:103F50009E038B3040F081E080939E0361E081E01E
:103F600090E00E94AB1680919B03823038F0109253
:103F70009B0360E082E090E00E94AB1680919C037E
:103F8000823038F010929C0360E083E090E00E9461
:103F9000AB160E94F30A1092A00310929F030E9496
:103FA00028170E94B40980918F03909190039093F9
:103FB0008E0380938D0390938C0380938B03809169
:103FC000B1059091B205A091B305B091B40580936D
:103FD000A2039093A303A093A403B093A5030E940C
:103FE0000805672B682B692B09F401C10E9408059D
:103FF0000091F8031091F9032091FA033091FB032B
:10400000601771078207930708F479C10091F803DC
:104010001091F9032091FA033091FB036B017C01AD
:10402000C01AD10AE20AF30A970186010A3F110574
:104030002105310508F4E3C06093F8037093F90398
:104040008093FA039093FB0384EF91E0A0E0B0E04B
:104050008093170590931805A0931905B0931A053E
:1040600010921B0510921C0510921D0510921E0542
:1040700080910F0590911005A0911105B091120546
:104080008093130590931405A0931505B09316051E
:104090000E94080560930F05709310058093110529
:1040A000909312058CE694E00E947B02843611F412
:1040B0000E94260D0E94080560930B0570930C0565
:1040C00080930D0590930E050E9408056B017C01FD
:1040D00060EA72E08CE694E00E94681561E08CE68C
:1040E00094E00E944D1567EA72E08CE694E00E942D
:1040F00068152AE0B701A6018CE694E00E94950DB0
:1041000069EA72E08CE694E00E94681580910F05E0
:1041100090911005A0911105B0911205B701A6016B
:10412000481B590B6A0B7B0B2AE08CE694E00E943B
:10413000950D69EA72E08CE694E00E946815409162
:104140000F05509110056091110570911205809135
:10415000130590911405A0911505B0911605481B03
:10416000590B6A0B7B0B2AE08CE694E00E94950DBC
:104170006BEA72E08CE694E00E9468150E940805E4
:10418000AB01BC012AE08CE694E00E94950D6DEA3B
:1041900072E08CE694E00E9454150E9408056B01C1
:1041A0007C014B015C0125E0820E911CA11CB11C1D
:1041B0000E9408056C157D058E059F0528F0861662
:1041C0009706A806B906A0F78CE694E00E947B0249
:1041D000843611F40E94260D0E94080560930F0595
:1041E00070931005809311059093120508C00E94EA
:1041F0000805623071058105910508F0F7CEFF24AE
:10420000F39484E6B82E9AE0E92E29E1C22ED12C4F
:1042100037EF832E33E0932E60E08DE00E94380369
:104220000E9408052B013C014092B1055092B20555
:104230006092B3057092B40585EB95E00E94B408D6
:10424000181619060CF064C01092F7031092F603CA
:1042500085EB95E00E94B4081816190634F585EB35
:1042600095E00E94CC082091F6033091F703F90104
:10427000EA55FC4F8083C901B6010E942E2A892B82
:1042800041F401E010E020E048EC6EE68AE00E9494
:10429000190E8091F6039091F70301969093F7031E
:1042A0008093F603813591059CF21092F7031092EA
:1042B000F6038091A603843409F068C350919C03EF
:1042C00040919B0320919E0330919D03E6EAF3E029
:1042D00081E090E06191662309F44DC36A53623036
:1042E000C8F78230910509F43CC30CF02EC381302D
:1042F000910581F73081305382E090E0EBCF6093FD
:10430000F8037093F9038093FA039093FB037ECE36
:104310008091A2039091A303A091A403B091A5035F
:10432000AC01BD014A5E5C4F6F4F7F4F4415550590
:104330006605770558F4805E9C4FAF4FBF4F481617
:1043400059066A067B0610F40E94D80A8091A203DF
:104350009091A303A091A403B091A50388519C4F11
:10436000AF4FBF4F4091B1055091B2056091B30579
:104370007091B405481759076A077B0708F44CCFBA
:104380000E94F008809300018E3679F1853409F09F
:104390007DC00E94F30A61E08DE00E9438038091A5
:1043A00000018E3609F4FEC061E08DE00E94380302
:1043B00020E040E062E382E30E94B80A68EC70E02B
:1043C00080E090E00E94D6040E94F00880930001F3
:1043D00060E08DE00E9438030E94D80A68EC70E02B
:1043E00080E090E00E94D604DACF8FE00E94C00304
:1043F0008B3293400CF44AC0F092A1030E94AD1698
:104400001092A00310929F0310E000E044E154E6F4
:1044100060E070E0C8010E9424010F5F1F4F0E3260
:104420001105A1F70E94F70361E08DE00E943803B7
:104430000E94051660E08DE00E9438030E94F30A96
:1044400060E08CE00E94380360E08BE00E9438035B
:1044500010E000E068E081E00E9458100E9408052A
:104460006093B1057093B2058093B3059093B40542
:1044700000328EE418070CF4E2C361E08DE00E9484
:1044800038030E94051660E08DE0E0CF85EB95E0F3
:104490000E94B408181619069CF51092F7031092A2
:1044A000F60385EB95E00E94B408181619060CF087
:1044B000FCCE85EB95E00E94CC082091F60330916C
:1044C000F703F901EA55FC4F8083C901B6010E9448
:1044D0002E2A892B41F401E010E020E048EC6EE642
:1044E0008AE00E94190E8091F6039091F7030196DD
:1044F0009093F7038093F6038135910594F2D5CE1E
:1045000060919E0380919D030E94581010919C031E
:1045100080919B0361E0813019F0811104C060E05B
:104520008CE00E94380361E0113019F0111104C0D1
:1045300060E08BE00E9438030E9428178091990365
:1045400090919A03C2978536910508F0FFCE10E04E
:1045500000E040E050E06FEF70E0C8010E942401ED
:104560000F5F1F4F0E321105A1F70E94F70368EC91
:1045700070E080E090E00E94D6040E94F30A68EEAA
:1045800073E080E090E00E94D60464EB72E085EB7B
:1045900095E00E9468158091990390919A030E947A
:1045A000E10DCCCF809100018E36C9F461E08DE041
:1045B0000E94380320E040E062E382E30E94B80AF0
:1045C00068EC70E080E090E00E94D6040E94F00861
:1045D0008093000160E08DE00E943803E3CF8134D6
:1045E00009F07CC061E08DE00E94380320E042E3E6
:1045F00062E382E30E94B80A68EC70E080E090E039
:104600000E94D6040E94F008182F60E08DE00E94FE
:1046100038030E94D80A68EC70E080E090E00E94C5
:10462000D6041E36F9F661E08DE00E94380320E0E2
:1046300042E362E382E30E94B80A64E670E080E04D
:1046400090E00E94D6040E94F008813321F5F09298
:104650009D0361E08DE00E94380320E042E362E3C5
:1046600082E30E94B80A62E370E080E090E00E947A
:10467000D6040E94F008182F60E08DE00E943803F5
:104680000E94D80A62E370E080E090E00E94D604C5
:104690001E36F9F64AC1823321F482E080939D03ED
:1046A000D8CF833311F483E0F9CF843311F484E05D
:1046B000F5CF853311F485E0F1CF863311F486E030
:1046C000EDCF60E08DE00E9438030E94D80A64E6D6
:1046D00070E080E090E00E94D604A5CF823409F01B
:1046E0005FC061E08DE00E94380320E042E362E3B6
:1046F00082E30E94B80A68EC70E080E090E00E94DB
:10470000D6040E94F008182F60E08DE00E94380364
:104710000E94D80A68EC70E080E090E00E94D60425
:104720001E36F9F661E08DE00E94380364E670E021
:1047300080E090E00E94D6040E94F008813319F4D2
:10474000F0929E0386CF823321F482E080939E0311
:1047500080CF833311F483E0F9CF843311F484E004
:10476000F5CF853311F485E0F1CF863311F486E07F
:10477000EDCF873311F487E0E9CF883311F488E077
:10478000E5CF893311F489E0E1CF60E08DE00E944C
:10479000380364E670E080E090E00E94D604C2CF67
:1047A000833409F04AC061E08DE00E94380320E0C4
:1047B00042E362E382E30E94B80A68EC70E080E0C2
:1047C00090E00E94D6040E94F008182F60E08DE06F
:1047D0000E9438030E94D80A68EC70E080E090E004
:1047E0000E94D6041E36F9F661E08DE00E9438037F
:1047F00020E042E362E382E30E94B80A64E670E0EC
:1048000080E090E00E94D6040E94F008813319F401
:10481000F0929B031ECF823319F410929B0319CFA1
:1048200060E08DE00E9438030E94D80A64E670E0E0
:1048300080E090E00E94D604D7CF843409F04AC0CB
:1048400061E08DE00E94380320E042E362E382E30E
:104850000E94B80A68EC70E080E090E00E94D60404
:104860000E94F008182F60E08DE00E9438030E943B
:10487000D80A68EC70E080E090E00E94D6041E3612
:10488000F9F661E08DE00E94380320E040E062E349
:1048900082E30E94B80A64E670E080E090E00E9443
:1048A000D6040E94F008813319F4F0929C03D1CE13
:1048B000823319F410929C03CCCE60E08DE00E940C
:1048C00038030E94D80A64E670E080E090E00E941D
:1048D000D604D7CF863449F561E08DE00E943803D5
:1048E00020E042E362E382E30E94B80A68EC70E0F1
:1048F00080E090E00E94D6040E94F008182F60E04B
:104900008DE00E9438030E94D80A68EC70E080E0D5
:1049100090E00E94D6041E36F9F6F0929D03F092C4
:104920009E0310929B0310929C038EE680930001DD
:104930000E9405160E94AD1660E08DE00E943803CB
:104940001092A00310929F0369C18330910571F00A
:104950008430910509F0BECC5081505385E090E041
:10496000B9CC2081205383E090E0B4CC4081405307
:1049700084E090E0AFCC50939C0340939B03309332
:104980009D0320939E030E940516C9C0833409F03D
:10499000D4C06091910370919203809193039091A0
:1049A0009403209195033091960340919703509181
:1049B0009803E6EAF3E0A1E0B0E01191112309F4D5
:1049C00098C01A531230C8F7A230B10509F44FC08D
:1049D0002CF5A130B10589F74181042E000C550B4F
:1049E00040535109B49E8001B59E100D1124A2813F
:1049F0000A2E000CBB0BD097EA9EA001EB9E500D37
:104A00001124040F151F4381042E000C550B405335
:104A10005109400F511FA2E0B0E0CFCFA330B10544
:104A200009F447C0A430B10541F66181062E000C9F
:104A3000770B60537109B69E8001B79E100D11244B
:104A4000A2810A2E000CBB0BD097EA9EB001EB9E10
:104A5000700D1124060F171F6381062E000C770BB3
:104A600060537109600F711FA5E0B0E0A6CF2181EE
:104A7000022E000C330B20533109B29E8001B39EED
:104A8000100D1124A2810A2E000CBB0BD097EA9EB8
:104A90009001EB9E300D1124020F131F2381022E73
:104AA000000C330B20533109200F311FA3E0B0E07D
:104AB00084CF8181082E000C990BC097B89E80018D
:104AC000B99E100D1124A2810A2E000CBB0BD097A9
:104AD000EA9EC001EB9E900D1124080F191F8381DF
:104AE000082E000C990BC097800F911FA4E0B0E036
:104AF00064CF709392036093910350939803409313
:104B00009703309396032093950390939403809397
:104B100093030E946A151092A00310929F030E94B3
:104B2000AD16E6EAF3E0CF01865A934021912223A5
:104B300061F0DF0111971C92F6CF813409F423CF85
:104B4000823469F70E946A15EACF9093F703809345
:104B5000F6030E94E51680919D038B3038F0F092A9
:104B60009D0361E090E080E00E94AB1680919E037F
:104B70008B3038F0F0929E0361E081E090E00E947B
:104B8000AB1680919B03823038F010929B0360E05B
:104B900082E090E00E94AB1680919C03823038F056
:104BA00010929C0360E083E090E00E94AB1680913D
:104BB0009703909198038F3F910529F020F0109270
:104BC00098031092970380919503909196038F3FDD
:104BD000910529F020F01092960310929503809190
:104BE0009303909194038F3F910529F020F0109248
:104BF00094031092930380919103909192038F3FBD
:104C0000910529F020F0109292031092910385EB08
:104C100095E00E94B408892B09F492CE8091B105E9
:104C20009091B205A091B305B091B4058093A20311
:104C30009093A303A093A403B093A503EDCA85EBBF
:104C400095E00E94B408181619061CF506EA13E050
:104C500085EB95E00E94B4081816190654F485EB0C
:104C600095E00E94CC08F80181938F018E169F0673
:104C700079F761E08DE00E9438030E940516E6EAAC
:104C8000F3E08191882309F4FECBDF0111971C9298
:104C9000F8CF8FE00E94C0038A329340BCF4109298
:104CA000A00310929F031092A10320E040E060E077
:104CB00084E60E94B80A64E670E080E090E00E941A
:104CC000D6040E94D80A0E94E516A8CF0F5F1F4F96
:104CD000C1CB80916405909165050E94E42A809182
:104CE00061059091620597FD03C060E00E94840316
:104CF0008FE391E09093B6058093B505809183038F
:104D000090918403855B954071F4E091C805F09122
:104D1000C90590818091CA0580958923808310926E
:104D20008403109283030895FC0188279927E8944F
:104D300021912032E9F3293010F02E30C8F32B32C4
:104D400041F02D3239F4689404C00E94B226820FDB
:104D5000911D219120532A30C0F31EF49095819526
:104D60009F4F08957AE0979F902D879F802D910DFA
:104D7000112408950E94FC2608F481E00895E89427
:104D800009C097FB3EF490958095709561957F4F93
:104D90008F4F9F4F9923A9F0F92F96E9BB27939541
:104DA000F695879577956795B795F111F8CFFAF451
:104DB000BB0F11F460FF1BC06F5F7F4F8F4F9F4F82
:104DC00016C0882311F096E911C0772321F09EE8E0
:104DD000872F762F05C0662371F096E8862F70E046
:104DE00060E02AF09A95660F771F881FDAF7880F20
:104DF0009695879597F90895990F0008550FAA0B76
:104E0000E0E8FEEF16161706E807F907C0F01216DD
:104E10001306E407F50798F0621B730B840B950BE0
:104E200039F40A2661F0232B242B252B21F4089535
:104E30000A2609F4A140A6958FEF811D811D0895D2
:104E40000E9433270C94A4270E94962738F00E94D2
:104E50009D2720F0952311F00C948D270C94932717
:104E600011240C94D8270E94B52770F3959FC1F3A5
:104E7000950F50E0551F629FF001729FBB27F00D08
:104E8000B11D639FAA27F00DB11DAA1F649F66275D
:104E9000B00DA11D661F829F2227B00DA11D621FAC
:104EA000739FB00DA11D621F839FA00D611D221F66
:104EB000749F3327A00D611D231F849F600D211D4A
:104EC000822F762F6A2F11249F5750409AF0F1F0CD
:104ED00088234AF0EE0FFF1FBB1F661F771F881F36
:104EE00091505040A9F79E3F510580F00C948D27BA
:104EF0000C94D8275F3FE4F3983ED4F386957795DA
:104F00006795B795F795E7959F5FC1F7FE2B880FDB
:104F1000911D9695879597F9089597F99F6780E871
:104F200070E060E008959FEF80EC089500240A94FB
:104F30001616170618060906089500240A94121674
:104F40001306140605060895092E0394000C11F4A7
:104F5000882352F0BB0F40F4BF2B11F460FF04C054
:104F60006F5F7F4F8F4F9F4F089557FD9058440FAD
:104F7000551F59F05F3F71F04795880F97FB991FB8
:104F800061F09F3F79F08795089512161306140675
:104F9000551FF2CF4695F1DF08C016161706180602
:104FA000991FF1CF86957105610508940895E894DD
:104FB000BB2766277727CB0197F90895F999FECF8C
:104FC00092BD81BDF89A992780B50895262FF99949
:104FD000FECF1FBA92BD81BD20BD0FB6F894FA9ADC
:104FE000F99A0FBE01960895A1E21A2EAA1BBB1BC7
:104FF000FD010DC0AA1FBB1FEE1FFF1FA217B307A5
:10500000E407F50720F0A21BB30BE40BF50B661FBA
:10501000771F881F991F1A9469F76095709580957E
:1050200090959B01AC01BD01CF010895052E97FB22
:105030001EF400940E942D2857FD07D00E94F427EB
:1050400007FC03D04EF40C942D28509540953095D4
:1050500021953F4F4F4F5F4F0895909580957095E4
:1050600061957F4F8F4F9F4F08950E944028A59FC5
:10507000900DB49F900DA49F800D911D1124089553
:10508000A29FB001B39FC001A39F700D811D112489
:10509000911DB29F700D811D1124911D08955058CE
:1050A000BB27AA270E9467280C94A4270E94962752
:1050B00038F00E949D2720F039F49F3F19F426F420
:1050C0000C9493270EF4E095E7FB0C948D27E92FC1
:1050D0000E94B52758F3BA1762077307840795072C
:1050E00020F079F4A6F50C94D7270EF4E0950B2E5A
:1050F000BA2FA02D0B01B90190010C01CA01A0012A
:105100001124FF27591B99F0593F50F4503E68F184
:105110001A16F040A22F232F342F4427585FF3CFC5
:10512000469537952795A795F0405395C9F77EF496
:105130001F16BA0B620B730B840BBAF09150A1F0DF
:10514000FF0FBB1F661F771F881FC2F70EC0BA0F65
:10515000621F731F841F48F4879577956795B795ED
:10516000F7959E3F08F0B0CF9395880F08F09927E8
:10517000EE0F9795879508950E94962760F080E836
:1051800091E009F49EEF0E949D2728F040E851E04D
:1051900071F45EEF0CC00C9493270C94D727E92F81
:1051A000E0780E94B52740F3092E052AB1F32617AF
:1051B00037074807590738F00E2E07F8E02569F041
:1051C000E025E0640AC0EF6307F8009407FADB010A
:1051D000B9019D01DC01CA01AD01EF930E9445298F
:1051E0000E94A4270E94FF285F91552339F02BEDE0
:1051F0003FE049E450FD49EC0C9450280895DF93BA
:10520000DD27B92FBF7740E85FE31616170648077A
:105210005B0718F4D92F0E94022A9F938F937F93E4
:105220006F930E940A2AE8E6F0E00E94D6290E94C5
:10523000A4272F913F914F915F910E943327DD2347
:1052400051F09058A2EA2AED3FE049EC5FE3D078B4
:105250005D270E946728DF910C94A4270E944229B1
:105260000C94A4270E949D2758F00E94962740F096
:1052700029F45F3F29F00C948D2751110C94D82705
:105280000C9493270E94B52768F39923B1F3552313
:1052900091F3951B550BBB27AA2762177307840749
:1052A00038F09F5F5F4F220F331F441FAA1FA9F3DF
:1052B00035D00E2E3AF0E0E832D091505040E695CD
:1052C000001CCAF72BD0FE2F29D0660F771F881F2E
:1052D000BB1F261737074807AB07B0E809F0BB0B21
:1052E000802DBF01FF2793585F4F3AF09E3F510535
:1052F00078F00C948D270C94D8275F3FE4F3983E08
:10530000D4F3869577956795B795F7959F5FC9F71D
:10531000880F911D9695879597F90895E1E0660F9E
:10532000771F881FBB1F621773078407BA0720F017
:10533000621B730B840BBA0BEE1F88F7E095089580
:105340000E94A7296894B1110C94D82708950E944F
:10535000BD2788F09F5798F0B92F9927B751B0F023
:10536000E1F0660F771F881F991F1AF0BA95C9F7E9
:1053700014C0B13091F00E94D727B1E008950C9489
:10538000D727672F782F8827B85F39F0B93FCCF33C
:10539000869577956795B395D9F73EF49095809566
:1053A000709561957F4F8F4F9F4F0895DF93CF93F7
:1053B0001F930F93FF92EF92DF927B018C01689411
:1053C00006C0DA2EEF010E943327FE01E894A59172
:1053D0002591359145915591A6F3EF010E946728DB
:1053E000FE019701A801DA9469F7DF90EF90FF9032
:1053F0000F911F91CF91DF9108950E94FC2608F430
:105400008FEF08959B01AC0160E070E080E89FE3BE
:105410000C942E299B01AC010C942027991B79E058
:1054200004C0991F961708F0961B881F7A95C9F734
:1054300080950895AA1BBB1B51E107C0AA1FBB1F83
:10544000A617B70710F0A61BB70B881F991F5A9510
:10545000A9F780959095BC01CD01089597FB072E83
:1054600016F4009407D077FD09D00E941A2A07FC91
:1054700005D03EF4909581959F4F08957095619564
:105480007F4F0895EE0FFF1F0590F491E02D0994D2
:105490000F931F93CF93DF938230910510F482E036
:1054A00090E0E091D605F091D70530E020E0B0E043
:1054B000A0E0309799F42115310509F44AC0281B62
:1054C000390B24303105D8F58A819B81611571052E
:1054D00089F1FB0193838283FE0111C040815181D8
:1054E0000281138148175907E0F04817590799F4CA
:1054F000109761F012960C93129713961C933296A4
:10550000CF01DF91CF911F910F9108950093D605A0
:105510001093D705F4CF2115310551F042175307E9
:1055200038F0A901DB019A01BD01DF01F801C1CF0B
:10553000EF01F9CF9093D7058093D605CDCFFE012B
:10554000E20FF31F8193919322503109398328830D
:10555000D7CF2091D4053091D505232B41F420914C
:105560000301309104013093D5052093D405209197
:105570000101309102012115310541F42DB73EB7EB
:105580004091050150910601241B350BE091D40593
:10559000F091D505E217F307A0F42E1B3F0B281757
:1055A000390778F0AC014E5F5F4F2417350748F09C
:1055B0004E0F5F1F5093D5054093D405819391936F
:1055C0009FCFF0E0E0E09CCFCF93DF930097E9F02E
:1055D000FC01329713821282A091D605B091D705B3
:1055E000ED0130E020E01097A1F420813181820F9D
:1055F000931F2091D4053091D5052817390709F05C
:1056000061C0F093D505E093D405DF91CF91089563
:10561000EA01CE17DF07E8F54A815B819E0141155B
:105620005105B1F7E901FB83EA8349915991C40F10
:10563000D51FEC17FD0761F4808191810296840FDC
:10564000951FE90199838883828193819B838A8353
:10565000F0E0E0E012968D919C9113970097B9F5D8
:105660002D913C911197CD010296820F931F2091AD
:10567000D4053091D5052817390739F6309751F5FB
:105680001092D7051092D605B093D505A093D405F6
:10569000BCCFD383C28340815181840F951FC8172B
:1056A000D90761F44E5F5F4F88819981480F591F78
:1056B000518340838A819B819383828321153105A5
:1056C00009F0B0CFF093D705E093D6059ECFFD014A
:1056D000DC01C0CF13821282D7CF81E090E0F89432
:1056E0000C94722B10E0C9EFD0E004C0FE010E94C0
:0E56F000422A2196CA3FD107C9F7F894FFCF8E
:1056FE006E0000D805800000000000CB0226025884
:10570E00021803890267027B0200000000F407C73B
:10571E0007ED0853024905B407A50700000000482D
:10572E0005220D54028C0B0C0B750700000000585F
:10573E00082602ED085302B408CC0840080D0A00F2
:10574E00435B523A002F473A002F423A002F573A06
:10575E00005D00445B424E3A002F544E3A002F310A
:10576E004F3A002F324F3A002F43483A002F5354EE
:10577E003A004E3A20536176696E67206461746117
:10578E0020004E3A20476574206461746120004801
:10579E004D43353838334C20636F6E6E65637469D4
:1057AE006F6E207375636365737366756C00484D19
:1057BE0043353838334C20636F6E6E656374696F92
:1057CE006E206661696C6564004D5055363035301B
:1057DE0020636F6E6E656374696F6E20737563639D
:1057EE0065737366756C004D5055363035302063D9
:1057FE006F6E6E656374696F6E206661696C656449
:10580E0000564D4450565F317C315F564D445056D4
:10581E000A00564D4450525F00496E697469616CBE
:10582E00697A696E672049324320646576696365DB
:10583E00732E2E2E0054657374696E672064657620
:10584E0069636520636F6E6E656374696F6E732E28
:10585E002E2E00626567696E2829206661696C6567
:10586E00642E20636865636B20796F757220424DDC
:10587E005031383020496E746572666163652061FF
:10588E006E642049324320416464726573732E0046
:10589E00564D4450455F003A323A007C005F564DFB
:1058AE0044504500546F6F20686967682074656DB9
:0658BE0070203A200000FA
:107E0000112484B714BE81FFF0D085E080938100F7
:107E100082E08093C00088E18093C10086E0809377
:107E2000C20080E18093C4008EE0C9D0259A86E02C
:107E300020E33CEF91E0309385002093840096BBD3
:107E4000B09BFECF1D9AA8958150A9F7CC24DD24C4
:107E500088248394B5E0AB2EA1E19A2EF3E0BF2EE7
:107E6000A2D0813461F49FD0082FAFD0023811F036
:107E7000013811F484E001C083E08DD089C08234E0
:107E800011F484E103C0853419F485E0A6D080C0E4
:107E9000853579F488D0E82EFF2485D0082F10E0AE
:107EA000102F00270E291F29000F111F8ED06801E7
:107EB0006FC0863521F484E090D080E0DECF843638
:107EC00009F040C070D06FD0082F6DD080E0C81688
:107ED00080E7D80618F4F601B7BEE895C0E0D1E017
:107EE00062D089930C17E1F7F0E0CF16F0E7DF06D8
:107EF00018F0F601B7BEE89568D007B600FCFDCFD4
:107F0000A601A0E0B1E02C9130E011968C91119780
:107F100090E0982F8827822B932B1296FA010C0160
:107F200087BEE89511244E5F5F4FF1E0A038BF0790
:107F300051F7F601A7BEE89507B600FCFDCF97BE46
:107F4000E89526C08437B1F42ED02DD0F82E2BD052
:107F50003CD0F601EF2C8F010F5F1F4F84911BD097
:107F6000EA94F801C1F70894C11CD11CFA94CF0C13
:107F7000D11C0EC0853739F428D08EE10CD085E9AC
:107F80000AD08FE07ACF813511F488E018D01DD067
:107F900080E101D065CF982F8091C00085FFFCCF94
:107FA0009093C60008958091C00087FFFCCF809118
:107FB000C00084FD01C0A8958091C6000895E0E648
:107FC000F0E098E1908380830895EDDF803219F02E
:107FD00088E0F5DFFFCF84E1DECF1F93182FE3DFCA
:107FE0001150E9F7F2DF1F91089580E0E8DFEE27F6
:047FF000FF270994CA
:027FFE00040479
:0400000300007E007B
:00000001FF