:100000000C947A000C94A2000C94A2000C94050E9F
:100010000C94050E0C94050E0C94A2000C94A200F6
:100020000C94A2000C94A2000C94A2000C94A200C8
:100030000C94A2000C94A2000C94A2000C94A200B8
:100040000C949C0C0C94A2000C946A0C0C94440C20
:100050000C94A2000C94A2000C94A2000C94A20098
:100060000C94E60C0C94A200084AD73B3BCE016EE0
:1000700084BCBFFDC12F3D6C74319ABD56833DDAFF
:100080003D00C77F11BED9E4BB4C3E916BAAAABE0E
:10009000000000803F0000000000240027002A002C
:1000A0000000000800020100000304070000000037
:1000B00000000000000000002300260029000000CE
:1000C0000000250028002B00040404040404040498
:1000D00002020202020203030303030301020408F3
:1000E00010204080010204081020010204081020A2
:1000F0007D0E861811241FBECFEFD8E0DEBFCDBF26
:1001000013E0A0E0B1E0EAECFAE302C005900D9242
:10011000AA31B107D9F725E0AAE1B3E001C01D92E9
:10012000AB3BB207E1F710E0C9E7D0E004C021978C
:10013000FE010E94281CC837D107C9F70E94D10FC1
:100140000C94581D0C9400008F929F92AF92BF9216
:10015000CF92DF92EF92FF92CF932091440530919E
:10016000450582179307E8F54B01AA24BB24C82D47
:10017000C52ED62EE72EFF24BC2DA42F20914A0594
:10018000222361F0829E40011124C92D2C9D600123
:100190001124BD2D249FF0011124AF2FE0915005B3
:1001A000E0904B05F0904C0530914D05E31323C0D2
:1001B0009C01220F331F820F931F8E0D9F1DE09114
:1001C0004D05E80FF92FF11DC083E0914E05E80FB2
:1001D000F92FF11DB08320914F05820F911DFC0175
:1001E000A083CF91FF90EF90DF90CF90BF90AF9022
:1001F0009F908F900895880F991F880F991F8E0DDB
:100200009F1D472F552766277727222349F030E087
:10021000249F7001259FF00C349FF00C11244F2D6A
:10022000E80FF92FF11D4083CACF81E008950895AA
:100230000895AF92BF92CF92DF92EF92FF920F9309
:100240001F93CF93DF936C017B018B01040F151F6C
:10025000EB015E01AE18BF08C017D10759F06991D4
:10026000D601ED91FC910190F081E02DC601099538
:10027000892B79F7C501DF91CF911F910F91FF90E5
:10028000EF90DF90CF90BF90AF900895FC01538D19
:10029000448D252F30E0842F90E0821B930B541760
:1002A00010F0CF96089501970895FC01918D828DED
:1002B000981761F0A28DAE0FBF2FB11D5D968C9186
:1002C000928D9F5F9F73928F90E008958FEF9FEFC5
:1002D0000895FC01918D828D981731F0828DE80F81
:1002E000F11D858D90E008958FEF9FEF0895FC013B
:1002F000918D228D892F90E0805C9F4F821B910908
:100300008F739927089589E994E00E94770121E08D
:10031000892B09F420E0822F089580E090E0892B5A
:1003200029F00E94830181110C9400000895FC01C2
:10033000A48DA80FB92FB11DA35ABF4F2C91848D46
:1003400090E001968F739927848FA689B7892C93A3
:10035000A089B1898C91837080648C93938D848DF6
:10036000981306C00288F389E02D80818F7D8083F9
:100370000895EF92FF920F931F93CF93DF93EC01B9
:1003800081E0888F9B8D8C8D98131AC0E889F9893C
:10039000808185FF15C09FB7F894EE89FF8960833F
:1003A000E889F98980818370806480839FBF81E0C0
:1003B00090E0DF91CF911F910F91FF90EF90089502
:1003C000F62E0B8D10E00F5F1F4F0F731127E02EDD
:1003D0008C8D8E110CC00FB607FCFACFE889F98915
:1003E000808185FFF5CFCE010E949701F1CFEB8D83
:1003F000EC0FFD2FF11DE35AFF4FF0829FB7F894E9
:100400000B8FEA89FB8980818062CFCFCF93DF9306
:10041000EC01888D8823B9F0AA89BB89E889F9891C
:100420008C9185FD03C0808186FD0DC00FB607FC51
:10043000F7CF8C9185FFF2CF808185FFEDCFCE0184
:100440000E949701E9CFDF91CF91089590E0FC01E0
:10045000E056FF4F2491FC01E452FF4F3491FC0120
:10046000E853FF4FE491EE23C9F0222339F0233003
:1004700001F1A8F4213019F1223029F1F0E0EE0F5A
:10048000FF1FE254FF4FA591B4918FB7F894EC9100
:10049000611126C030953E233C938FBF08952730CD
:1004A000A9F02830C9F0243049F7809180008F7D71
:1004B00003C0809180008F7780938000DFCF84B568
:1004C0008F7784BDDBCF84B58F7DFBCF8091B0006B
:1004D0008F778093B000D2CF8091B0008F7DF9CF1D
:1004E0003E2BDACFCF93DF9390E0FC01E452FF4F35
:1004F000249188539F4FFC0184918823C9F090E098
:10050000880F991FFC01EA56FF4FA591B491FC0199
:10051000E254FF4FC591D49161110DC09FB7F8947B
:100520008C91209582238C938881282328839FBFD8
:10053000DF91CF910895623051F49FB7F8943C91C8
:10054000822F809583238C93E8812E2BEFCF8FB75A
:10055000F894EC912E2B2C938FBFEACF3FB7F894F1
:100560008091A3039091A403A091A503B091A60349
:1005700026B5A89B05C02F3F19F00196A11DB11DFE
:100580003FBFBA2FA92F982F8827BC01CD01620F3A
:10059000711D811D911D42E0660F771F881F991FF5
:1005A0004A95D1F70895CF92DF92EF92FF920F9381
:1005B0001F93CF93DF93CDB7DEB729970FB6F8948B
:1005C000DEBF0FBECDBF80914B0590914C05892BAE
:1005D00009F480C0C0905105D0905205E0905305B9
:1005E000F09054050E94AE026C157D058E059F05A6
:1005F00050F40E94AE0260935105709352058093AF
:100600005305909354050E94AE020091510510913C
:1006100052052091530530915405601B710B820BDC
:10062000930B6C32714081059105A0F2F894809192
:100630004605909147059A838983E0914B05F09197
:100640004C05DF0111968081898790914205E091E8
:100650005505F091560580915705992309F449C035
:100660009081982B98879081809589238F838F81A3
:100670008C8388E08B8358856F8149853B812C81F1
:1006800089819A81508347FD252F3A952083262F13
:1006900039F0441F00C000006083000000C0F2CFAA
:1006A00038E04D9160830000019761F7F0935605A3
:1006B000E093550549873B832C839A8389837894FB
:1006C0000E94AE02609351057093520580935305CA
:1006D0009093540529960FB6F894DEBF0FBECDBF98
:1006E000DF91CF911F910F91FF90EF90DF90CF900E
:1006F00008959081982B98879081809589238F8386
:100700008F818E8388E08D8358856F8149853D81F7
:100710002E8189819A81508347FD252F00C000C01A
:10072000208300C000C000C000C000C06083000083
:10073000262F3A9541F0441F000000C000C000C0C1
:1007400000C000C0E8CF38E04D9100C0608300C019
:10075000019709F7F0935605E093550549873D83C6
:100760002E83ABCF8F929F92AF92BF92CF92DF92A8
:10077000EF92FF926B017C010E94AE024B015C0183
:10078000C114D104E104F104B9F00E94AE02681969
:1007900079098A099B09683E73408105910580F3B8
:1007A00021E0C21AD108E108F10888EE880E83E042
:1007B000981EA11CB11CE4CFFF90EF90DF90CF906A
:1007C000BF90AF909F908F9008950895BF92CF9261
:1007D000DF92EF92FF920F931F93CF93DF934530F9
:1007E000D8F4B42E062FEC0110E060E070E0CB01ED
:1007F000B116A9F0CC24D62EE72EF82EE881F98187
:100800000680F781E02D602FCE0109959601282BF7
:10081000C701B9011F5FECCF60E070E0CB01DF9151
:10082000CF911F910F91FF90EF90DF90CF90BF90ED
:10083000089508958091AF039091B003891B990B9F
:10084000089520917B03260F3327331F2132310572
:10085000ECF420919304FC0190E080E0243069F0F6
:1008600082E00895A0917B032191AC01455A5C4F31
:10087000A40FB52FB11D2C930196861798F3809184
:100880007B03680F60937B0380E0089581E0089507
:100890001092930481E08093720410926D0461E0E1
:1008A00082E10E94260261E083E10E942602E9EBD8
:1008B000F0E080818E7F808380818D7F808388E4DB
:1008C0008093B80085E48093BC000895CF93DF93B4
:1008D00091E090935A038823B9F0C091B800D09169
:1008E000BA008091BC008A7B8093BC0060E082E10A
:1008F0000E94260260E083E10E9426020E944804D2
:10090000D093BA00C093B800DF91CF910895CF92F1
:10091000DF92EF92FF920F931F93CF93DF93D82F25
:10092000C62F613208F098C00E94AE026B017C01B4
:100930008091930481116BC081E080939304809334
:1009400072049FEF90937104109270049C0F909327
:100950006F0480936E0480916E04DD0FD82BD093CA
:100960006E0480916D04813009F078C010926D049E
:100970000E94AE026B017C0180916E048093BB00EB
:100980008091950490919604A0919704B091980459
:10099000892B8A2B8B2BA1F00E94AE02009195042B
:1009A0001091960420919704309198046C197D0958
:1009B0008E099F09061717072807390708F448C04A
:1009C0008091BC0083FDD8CF85EC8093BC000E9451
:1009D000AE026B017C0180919304813009F440C028
:1009E000809170048C1710F4C0917004EDE4F4E071
:1009F000A3E7B4E080E08C1355C08C2FDF91CF913A
:100A00001F910F91FF90EF90DF90CF90089580910C
:100A1000950490919604A0919704B0919804892B25
:100A20008A2B8B2B09F484CF0E94AE02009195048F
:100A30001091960420919704309198046C197D09C7
:100A40008E099F09061717072807390708F070CF86
:100A5000809194040E946604C0E0CFCF85EEB5CFAC
:100A60008091950490919604A0919704B091980478
:100A7000892B8A2B8B2B09F4AECF0E94AE020091FA
:100A800095041091960420919704309198046C1964
:100A90007D098E099F09061717072807390708F0EF
:100AA0009ACFD6CF91919D938F5FA5CF8F929F9232
:100AB000AF92BF92CF92DF92EF92FF920F931F936C
:100AC000CF93DF93D0914C04D13208F0D7C0182FC8
:100AD000C0914B040E94AE026B017C018091930493
:100AE00081116BC082E080939304109372048FEFA6
:100AF0008093710410927004D0936F04ABE2B4E061
:100B0000EDE4F4E080E0D81391C010926E0480917F
:100B10006E04CC0FC82BC0936E0480916D0481309D
:100B200009F088C010926D040E94AE026B017C0136
:100B300080916E048093BB008091950490919604FF
:100B4000A0919704B0919804892B8A2B8B2BA1F04C
:100B50000E94AE0200919504109196042091970492
:100B6000309198046C197D098E099F0906171707A3
:100B70002807390708F442C08091BC0083FDD8CF14
:100B800085EC8093BC000E94AE026B017C018091D9
:100B90009304823009F450C0809171048F3F09F4AE
:100BA0006FC080917104803209F46CC0809171042F
:100BB000803309F469C084E026C080919504909147
:100BC0009604A0919704B0919804892B8A2B8B2BC3
:100BD00009F484CF0E94AE02809095049090960410
:100BE000A0909704B09098046C197D098E099F0914
:100BF00086169706A806B90608F070CF809194046F
:100C00000E94660485E010922A0410924C0410920F
:100C10002904DF91CF911F910F91FF90EF90DF900A
:100C2000CF90BF90AF909F908F9008959D9191939A
:100C30008F5F69CF85EEA5CF809195049091960442
:100C4000A0919704B0919804892B8A2B8B2B09F4DF
:100C50009ECF0E94AE0200919504109196042091BF
:100C60009704309198046C197D098E099F09061725
:100C700017072807390708F08ACFC0CF81E0C3CF14
:100C800080E0C1CF82E0BFCF83E0BDCF1F93CF9381
:100C9000DF93FC01A6A1B7A1109721F1142FEC015D
:100CA00080A591E09093290480934B0410922A042C
:100CB00010924C04ED91FC9111970190F081E02D80
:100CC000CD0109958EA19FA1DC01ED91FC910190D0
:100CD000F081E02D612F099581E0DF91CF911F9187
:100CE0000C945605DF91CF911F9108950895E091DE
:100CF000B0038091AF03E81730F4F0E0ED58FB4FFC
:100D0000808190E008958FEF9FEF08959091B00358
:100D10008091AF032FEF3FEF981748F4E92FF0E0F1
:100D2000ED58FB4F208130E09F5F9093B003C901E5
:100D30000895CF92DF92EF92FF920F931F93CF937C
:100D4000DF937C01CB018A0120912904222389F0C1
:100D5000EB016B01C40ED51ECC15DD0569F0699160
:100D6000D701ED91FC910190F081E02DC70109952B
:100D7000F3CF642F0E942104C801DF91CF911F910E
:100D80000F91FF90EF90DF90CF900895CF93DF9376
:100D90001F92CDB7DEB76983209129042223F9F091
:100DA00020914C04203258F021E030E0FC013383E4
:100DB000228390E080E00F90DF91CF9108958091A1
:100DC0002A04E82FF0E0E55DFB4F998190838F5F67
:100DD00080932A0480934C0481E090E0ECCF61E0A2
:100DE000CE0101960E942104F7CFCF93C42F91E04A
:100DF0009093290480934B0410922A0410924C047F
:100E000086E395E00E94C6066C2F86E395E00E947B
:100E1000C60681E00E94560591E0811190E0892F7D
:100E2000CF9108952091A9033091AA03281739077B
:100E300071F49091A7038091A803981741F0E09175
:100E4000A703F0E0E65EFC4F808190E008958FEF0D
:100E50009FEF0895EF92FF920F931F93CF93DF932D
:100E6000DC015C96ED90FC905D97E114F10479F45F
:100E700081E090E013969C938E93129790E080E02F
:100E8000DF91CF911F910F91FF90EF9008955196B0
:100E9000ED91FC91529750968C915097982F909588
:100EA0000FB75E962C915E97122F127021FD609500
:100EB000F8942081112319F1282B2083E701219731
:100EC000F1F728E0462F50E0308160FF1AC0382B40
:100ED0003083E7012197F1F7BA01759567952150A5
:100EE00089F7112381F08081892380830FBF5C966D
:100EF0008D919C910197F1F781E090E0C1CF29237A
:100F0000DCCF3923E5CF9081892BEFCF2091A90346
:100F10003091AA032817390771F48091A803209112
:100F2000A70390E0805C9F4F821B910960E470E012
:100F30000E94141C089590E080E008952091A90378
:100F40003091AA0328173907B9F49091A70380912B
:100F5000A803981789F0E091A703F0E0E65EFC4F44
:100F600080812091A70330E02F5F3F4F2F733327FD
:100F70002093A70390E008958FEF9FEF089590E0EE
:100F800080E00895CF93DF93D0E0C0E040E050E0F0
:100F9000BA01CE010E94A4002196CE32D105B1F74C
:100FA000DF91CF910C94D302CF92DF92EF92FF9218
:100FB0000F931F93CF93DF93FC01A6A1B7A11097C6
:100FC000F1F14530E0F5142FEC0180A591E090930C
:100FD000290480934B0410922A0410924C04ED9142
:100FE000FC9111970190F081E02DCD01099580E0F1
:100FF0000E945605612F88A50E9487041092B003B5
:101000008093AF0300E060E070E0CB011017D1F0F7
:10101000CC24D62EE72EF82E8EA19FA1DC01ED91D7
:10102000FC910284F385E02D0995BC01990F880B92
:10103000990B6C297D298E299F290F5FE7CF60E0EE
:1010400070E0CB01DF91CF911F910F91FF90EF9056
:10105000DF90CF900895CF92DF92EF92FF926A01D6
:101060007B01422F682F8FE695E00E94D4076C2108
:101070007D218E219F21CC2059F020E04C2D50E085
:10108000C0FC05C02F5F6A01D594C794F7CFC22E6C
:1010900004C09695879577956795CA94D2F7FF9087
:1010A000EF90DF90CF900895CF93DF93EC018EA166
:1010B0009FA1009741F128A531E0309329042093A6
:1010C0004B0410922A0410924C04DC01ED91FC9127
:1010D0000190F081E02D099580E00E94560561E0C5
:1010E00088A50E9487041092B0038093AF038EA15D
:1010F0009FA1DC01ED91FC910284F385E02D09951F
:10110000DF91CF91089580E0FBCFCF93DF93C62F7F
:10111000682F8FE695E00E9454088C2390E020E031
:101120004C2F50E0C0FD05C02F5FEA01D595C79553
:10113000F7CF02C0959587952A95E2F7DF91CF9179
:10114000089560E284EF0E948508811136C0809185
:1011500087058E3209F1843381F523E04FEF5FEF8D
:101160006FEF70E086EF0E942B084091880528E021
:1011700030E0241B310904C09595879577956795D4
:101180002A95D2F76093890570938A0580938B0521
:1011900090938C0581E0089522E04FEF5FEF60E0CF
:1011A00070E086EF0E942B0860938D0570938E058A
:1011B00080938F0590939005EDCF80E00895CF93B5
:1011C000DF93D82FC62F64EF8FE695E00E94540876
:1011D0005D2F2C2F90E06D2F70E0D0FD05C09F5F3C
:1011E00075956795D62FF7CF01C0220F9A95EAF72C
:1011F000482F42274523482764EF8FE695E0DF918B
:10120000CF910C9446062F923F924F925F926F922D
:101210007F928F929F92AF92BF92CF92DF92EF9286
:10122000FF920F931F93CF93DF9300D000D0CDB7E1
:10123000DEB7E82ED62E4C8319018FB7F894809034
:101240009F039090A003A090A103B090A2038FBF32
:10125000FC80C12C1B822F2D30E03A83298328018A
:10126000712C612C81E080932904E0924B04109250
:101270002A0410924C046D2D86E395E00E94C60668
:1012800081E00E94560591E09093290410922A046F
:1012900010924C046F2D20E22F1508F460E28E2D81
:1012A0000E9487041092B0038093AF039091AF0324
:1012B0008091B003981729F10115110571F486E3A7
:1012C00095E00E948606F1013B81E30FF11D37FD99
:1012D000FA9580833F5F3B83E9CF2FB7F8948091E5
:1012E0009F039091A003A091A103B091A2032FBFEF
:1012F00088199909AA09BB0984159505A605B7059A
:10130000F0F28C81C80EF81AC81608F4ABCF01159C
:10131000110509F12FB7F89480919F039091A003D4
:10132000A091A103B091A2032FBF88199909AA091E
:10133000BB0930E020E080179107A207B30758F0FF
:101340002B81822F220F990B29813A8182179307D3
:1013500014F43FEF3B838B810F900F900F900F9011
:10136000DF91CF911F910F91FF90EF90DF90CF9081
:10137000BF90AF909F908F907F906F905F904F90B5
:101380003F902F900895CF92DF92EF92FF920F93AC
:101390001F93CF93DF931F92CDB7DEB7F82EE62EC3
:1013A000C42ED22E08EE13E09E012F5F3F4F41E086
:1013B0000E94030981E090E001C0880FCA94EAF717
:1013C0004981DD2081F0482B49836E2D8F2D0E94AD
:1013D000F5060F90DF91CF911F910F91FF90EF9045
:1013E000DF90CF90089580954823EECFBF92CF92A3
:1013F000DF92EF92FF920F931F93CF93DF931F9291
:10140000CDB7DEB7F82EE62EC42EB22ED02E08EEC3
:1014100013E09E012F5F3F4F41E00E9403098823A4
:1014200071F18C2D8B19990BAC014F5F5F4F81E0EF
:1014300090E002C0880F991FBA94E2F70197042E3A
:1014400001C0880F0A94EAF70D2D01C0000F4A95DC
:10145000EAF7482F4095998149238023482B4983F7
:101460006E2D8F2D0E94F5060F90DF91CF911F9169
:101470000F91FF90EF90DF90CF90BF90089580E0A4
:10148000F3CF0C94CA1C0C94CA1C0E94531DFB0180
:1014900001900020E9F73197AF01461B570BDC01A3
:1014A000ED91FC910280F381E02D09948F929F923F
:1014B000AF92BF920F931F93CF93DF93CDB7DEB759
:1014C000A1970FB6F894DEBF0FBECDBF19A2423070
:1014D00008F44AE08E010F5D1F4F842E912CB12C31
:1014E000A12CA50194010E94F118E62FB901CA01AF
:1014F000EA3004F5E05DD801EE938D01232B242B17
:10150000252B79F790E080E0109729F0BD0188E95C
:1015100095E00E94470AA1960FB6F894DEBF0FBE71
:10152000CDBFDF91CF911F910F91BF90AF909F9052
:101530008F900895E95CDFCF682F70E090E080E045
:101540004AE00C94560ACF92DF92EF92FF92CF932B
:10155000DF936B017C016DE288E995E00E942A0728
:10156000EC0166277727CB016C197D098E099F094D
:101570004AE00E94560A8C0F9D1FDF91CF91FF9089
:10158000EF90DF90CF900895BC0188E995E00C942E
:10159000470A0F931F93CF93DF93EC010E94470AF2
:1015A0008C016CE471E0CE010E94470A800F911F0C
:1015B000DF91CF911F910F9108958091D303909166
:1015C000D40388519C4F9093D4038093D30380918C
:1015D000D1039091D20388519C4F9093D203809372
:1015E000D1038091CF039091D00388519C4F909369
:1015F000D0038093CF038091CD039091CE03885187
:101600009C4F9093CE038093CD038FE491E00E9492
:10161000C40A6091D3037091D40390E080E04AE063
:101620000E94560A84E591E00E94C40A6091D103A9
:101630007091D20390E080E04AE00E94560A88E56B
:1016400091E00E94C40A6091CF037091D00390E0B2
:1016500080E04AE00E94560A8CE591E00E94C40AAC
:101660006091CD037091CE0390E080E04AE00E944B
:10167000560A60E671E088E995E00E94C90A809107
:10168000D3039091D403885E93409093D4038093C6
:10169000D3038091D1039091D203885E93409093BD
:1016A000D2038093D1038091CF039091D003885EC1
:1016B00093409093D0038093CF038091CD0390917A
:1016C000CE03885E93409093CE038093CD0308951C
:1016D000CF93DF9380E480937C0080917A008064D4
:1016E00080937A0080917A0086FDFCCFD0917800BB
:1016F000C091790082E691E00E94C40A8091D603ED
:101700000E949C0A88E691E00E94C40A8091D50359
:101710000E949C0A8DE691E00E94C40A8091CB034E
:101720000E949C0A82E791E00E94C40A8091CC0347
:101730000E949C0A87E791E00E94C40A80E00E9410
:101740009C0A8CE791E00E94C40A3C2F2D2F032EA7
:10175000000C440B550B205D324041095109A9E5AD
:10176000B0E00E94E61822E830E040E050E00E943D
:10177000C7188AE0820F0E949C0A60E671E088E93F
:1017800095E0DF91CF910C94C90A85ED8093BC0060
:101790008091950490919604A0919704B09198043B
:1017A0000796A11DB11D23E0B695A795979587953E
:1017B0002A95D1F72091BC0024FD03C01092930418
:1017C000089540919504509196046091970470910A
:1017D0009804452B462B472B69F30097A105B105CB
:1017E00041F025E32A95F1F700000197A109B1091D
:1017F000E1CF809194040C9466040C94B9180C9475
:10180000B11861E871E089E994E00E94C90A84E0B6
:1018100090E00E94FF0B90E09093D4038093D30359
:1018200085E090E00E94FF0B90E09093D2038093BC
:10183000D10386E090E00E94FF0B90E09093D003EC
:101840008093CF0387E090E00E94FF0B90E090939D
:10185000CE038093CD0382E090E00E94FF0B809343
:10186000CB0383E090E00E94FF0B8093CC0381E0E8
:1018700090E00E94FF0B8093D50390E080E00E94EF
:10188000FF0B8093D60308951F920F920FB60F920D
:1018900011242F933F934F935F936F937F938F9375
:1018A0009F93AF93BF93EF93FF9389E994E00E94D6
:1018B0009701FF91EF91BF91AF919F918F917F9190
:1018C0006F915F914F913F912F910F900FBE0F90AD
:1018D0001F9018951F920F920FB60F9211242F93FD
:1018E0008F939F93EF93FF93E091A904F091AA0443
:1018F0008081E091AF04F091B00482FD1BC0908123
:101900008091B2048F5F8F732091B304821741F0EE
:10191000E091B204F0E0E756FB4F958F8093B2045C
:10192000FF91EF919F918F912F910F900FBE0F908C
:101930001F9018958081F4CF1F920F920FB60F92CF
:1019400011242F933F938F939F93AF93BF938091D5
:101950009F039091A003A091A103B091A2033091A5
:101960009E0323E0230F2D3758F50196A11DB11DCD
:1019700020939E0380939F039093A003A093A103C1
:10198000B093A2038091A3039091A403A091A50317
:10199000B091A6030196A11DB11D8093A30390935E
:1019A000A403A093A503B093A603BF91AF919F9109
:1019B0008F913F912F910F900FBE0F901F90189510
:1019C00026E8230F0296A11DB11DD2CF1F920F92C0
:1019D0000FB60F9211242F933F934F935F936F9302
:1019E0007F938F939F93AF93BF93EF93FF938091D8
:1019F000B900887F803609F44AC0F0F5883209F4CE
:101A0000A7C018F5803109F49BC0B8F4882309F405
:101A1000F9C0883009F494C0FF91EF91BF91AF9164
:101A20009F918F917F916F915F914F913F912F91F6
:101A30000F900FBE0F901F901895883109F488C041
:101A4000803251F78093710414C0803409F49DC032
:101A500040F48033B9F38833F9F68093710485EC50
:101A6000B0C0803509F485C0883509F496C0883443
:101A700099F60E94C50BD0CF883909F48CC038F58F
:101A8000883729F050F4883611F0803729F683E042
:101A90008093930410929D0357C0883809F47BC04B
:101AA000803919F0803809F0B7CF80919D038032DA
:101AB00008F071C0E0919D0381E08E0F80939D033B
:101AC0008091BB00F0E0E358FC4F80833DC0803B39
:101AD00039F0E0F4803A09F479C0883A09F09CCFF3
:101AE00084E08093930410927C0310927B03E09136
:101AF000AD03F091AE03099580917B0381110FC076
:101B000081E080937B0310925B0309C0803C09F461
:101B1000A6CF883C09F4A3CF883B09F07DCFE091A4
:101B20007C0381E08E0F80937C03F0E0E55AFC4F4C
:101B300080818093BB0090917C0380917B0329C0BE
:101B400080916E048093BB0085EC8093BC0064CFD1
:101B50009091700480916F04981758F5E09170048B
:101B600081E08E0F80937004F0E0E35BFB4F808197
:101B7000E9CFE091700481E08E0F80937004809132
:101B8000BB00F0E0E35BFB4F808390917004809199
:101B90006F049817C8F285E8D8CFE091700481E00F
:101BA0008E0F809370048091BB00F0E0E35BFB4FED
:101BB00080838091720481115CCF81E080936D04F9
:101BC00084EA8093BC001092930426CF85EC809326
:101BD000BC001092930480919D03803230F4E09118
:101BE0009D03F0E0E358FC4F108260919D0370E08C
:101BF000E091AB03F091AC038DE793E0099510926F
:101C00009D030ACF1092710434CF1F920F920FB62A
:101C10000F9211242F933F934F935F936F937F9372
:101C20008F939F93AF93BF93EF93FF93E091A9039B
:101C3000F091AA03309749F0A685B7858585968DE2
:101C400091FF14C09C918923A1F4FF91EF91BF9162
:101C5000AF919F918F917F916F915F914F913F9144
:101C60002F910F900FBE0F901F9018959C91892374
:101C700061F7A389B4899C918589809589238C9388
:101C8000868997890197F1F7608D718DA685B78553
:101C9000558538E020E0CB010197F1F7822F90E0E5
:101CA00095958795282F4C91452309F02068315050
:101CB00091F7868D81FD20958091A80390E0019693
:101CC0008F7399273091A703381799F0A091A80333
:101CD000B0E0A65EBC4F2C938093A803828D938DB9
:101CE0000197F1F7A389B4898C919589892B8C93FD
:101CF000ACCF868D8160868FF1CF10929C041092BC
:101D00009B0488EE93E0A0E0B0E080939D04909364
:101D10009E04A0939F04B093A0042AE031E0309386
:101D20009A042093990425EC30E03093A604209384
:101D3000A50424EC30E03093A8042093A70420EC01
:101D400030E03093AA042093A90421EC30E03093D2
:101D5000AC042093AB0422EC30E03093AE0420932B
:101D6000AD0426EC30E03093B0042093AF04109221
:101D7000B2041092B3041092B4041092B5041092FD
:101D800039051092380580933A0590933B05A0934E
:101D90003C05B0933D052CE131E0309337052093AD
:101DA000360510929B0510929A0580939C0590939E
:101DB0009D05A0939E05B0939F058EE391E09093BF
:101DC0009905809398051092AF051092AE05109278
:101DD000B1051092B0051092B3051092B2051092A1
:101DE000B5051092B4056091B6056E7F6D7F609366
:101DF000B6056695617081E0682782E00E94260240
:101E000061E082E00E947202EEEDF0E0E491E09386
:101E1000A805EAECF0E0E491F0E0EE0FFF1FE254D9
:101E2000FF4F859194919093AA058093A90560E056
:101E300083E00E9472028091B60581FD04C061E0DA
:101E400083E00E94260283E08093A405EFEDF0E09A
:101E5000E491E093A505EBECF0E0E491F0E0EE0F07
:101E6000FF1FEC54FF4F259134913093A705209329
:101E7000A605109287051092880510928905109288
:101E80008A0510928B0510928C0510928D05109288
:101E90008E0510928F051092900510929105109268
:101EA00092051092930510929405E1E7F5E096E112
:101EB000DF011D929A95E9F726E335E03093960508
:101EC0002093950597E7909397052EE231E03093A4
:101ED000700520936F0598E6909360059EE19093BE
:101EE00058051092430510924A0510925105109220
:101EF000520510925305109254058093500581E0CD
:101F000080934D0510924E0592E090934F0580937B
:101F1000420588EB90E090934705809346050E9428
:101F20002E1C90934C0580934B05009789F128EB6C
:101F3000FC0111922A95E9F78EE290E09093450515
:101F40008093440588E090E090934905809348058C
:101F500080914305882341F061E088E00E9472028D
:101F600060E088E00E942602E0EDF0E0E491F0E01D
:101F7000EE0FFF1FE254FF4F859194919093560509
:101F800080935505E4EEF0E0E491E0935705089561
:101F9000109247051092460510924505109244058F
:101FA000D1CFCF93DF93CDB7DEB76D970FB6F8944F
:101FB000DEBF0FBECDBF789484B5826084BD84B58A
:101FC000816084BD85B5826085BD85B5816085BD34
:101FD00080916E00816080936E00109281008091EC
:101FE0008100826080938100809181008160809374
:101FF0008100809180008160809380008091B10099
:1020000084608093B1008091B00081608093B000C3
:1020100080917A00846080937A0080917A00826057
:1020200080937A0080917A00816080937A00809119
:102030007A00806880937A001092C100E091A90430
:10204000F091AA0482E08083E091A504F091A604B7
:102050001082E091A704F091A80483E3808310929A
:10206000B104E091AD04F091AE0486E08083E0918C
:10207000AB04F091AC04808180618083E091AB047B
:10208000F091AC04808188608083E091AB04F09192
:10209000AC04808180688083E091AB04F091AC0453
:1020A00080818F7D80831092B3051092B2051092CB
:1020B000B1051092B0051092AF051092AE0585E6FD
:1020C00090E09093B5058093B4059091A405963166
:1020D00008F047C021E230E03093AF052093AE0511
:1020E00023E630E03093B1052093B00522E430E0E0
:1020F0003093B3052093B2052091680084E09830B6
:1021000048F031E09E3008F430E081E001C0880FF3
:102110003A95EAF7822B809368002DE630E09830FC
:1021200050F02BE630E09E3030F02CE630E0963177
:1021300010F030E020E03093AC052093AB05292F60
:1021400030E0983008F0AEC081E001C0880F9A9569
:10215000EAF78093AD058091B4059091B50501979C
:10216000F1F78091B2059091B305892B49F1E09187
:10217000A903F091AA0325E0E839F20709F13097A5
:1021800039F0A389B4899C918589809589238C93A2
:102190008091B6058E7F8093B6051092A8031092A9
:1021A000A70388E995E09093AA038093A903E0919F
:1021B000AB05F091AC0580819091AD05892B8083B2
:1021C00060E08EE00E94720260E08FE00E94720286
:1021D00062E080E10E94720262E081E10E9472028C
:1021E00062E084E10E94720262E085E10E94720274
:1021F00061E084E00E94720261E085E00E94720268
:1022000061E086E00E94720261E087E00E94720253
:1022100060E089E00E94720260E08AE00E9472023F
:1022200061E08CE00E94720261E08BE00E94720229
:1022300061E08DE00E94720280914805909149050D
:1022400097FD08C061E00E94720260E0809148053D
:102250000E94260281E0809343050E94D302609190
:102260004A05653691F120914B0530914C0561503E
:1022700031F170E08FEF94E60E94001CF90140916B
:10228000460550914705CF01821B930B8417950794
:10229000C8F44081469FC001479F900D1124908350
:1022A0003196EDCF9E3040F42850310981E001C0D5
:1022B000880F2A95EAF74DCF2E503109F7CF70E0FD
:1022C00060E0DCCF85E680934A0510E000E040E066
:1022D00054E660E070E0C8010E94A4000F5F1F4F49
:1022E0000E321105A1F70E94D30264E670E080E08F
:1022F00090E00E94B2030E94010C1092B003109271
:10230000AF0310922A0410924C040E94480487E103
:1023100091E09093AE038093AD0388E191E09093B8
:10232000AC038093AB0320E045E06AE68091600552
:102330000E94C30921E041E067E3809160050E94AB
:10234000C30920E046E06BE6809160050E94C30966
:1023500060E072E088E995E00E94C90A01E023E0AC
:1023600042E06BE6809160050E94F60900E022E001
:1023700044E06BE1809160050E94F60922E044E0B0
:102380006CE1809160050E94F60920E046E06BE672
:10239000809160050E94C30940E760E08091580584
:1023A0000E94F50640E261E0809158050E94F50622
:1023B00041E062E0809158050E94F50681E080933B
:1023C0005F0508EE13E029E535E043E06AE080911F
:1023D00058050E940309833071F4809159058834AF
:1023E00051F480915A05843331F480915B056EE895
:1023F00071E0833311F06DEA71E088E995E00E94A5
:10240000C90A6CE172E088E995E00E94C90A08EE09
:1024100013E09E012F5F3F4F41E065E7809160052B
:102420000E940309882339F089818E7790E0959581
:102430008795809361058091610568EC71E0843334
:1024400011F066EE71E088E995E00E94C90A6FEF2D
:1024500080ED0E948508853539F06AE372E089E9EC
:1024600094E00E94C90AFFCF22E04FEF5FEF60E0E7
:1024700070E08AEA0E942B086A837B838C839D83A9
:1024800022E04FEF5FEF60E070E08CEA0E942B08E3
:102490006E837F838887998722E04FEF5FEF60E04C
:1024A00070E08EEA0E942B086A877B878C879D8765
:1024B00022E04FEF5FEF60E070E080EB0E942B08BE
:1024C0006E877F87888B998B22E04FEF5FEF60E00C
:1024D00070E082EB0E942B086A8B7B8B8C8B9D8B30
:1024E00022E04FEF5FEF60E070E084EB0E942B088A
:1024F0006E8B7F8B888F998F22E04FEF5FEF60E0CC
:1025000070E086EB0E942B086A8F7B8F8C8F9D8FEB
:1025100022E04FEF5FEF60E070E088EB0E942B0855
:102520002B0122E04FEF5FEF60E070E08AEB0E944A
:102530002B084B0122E04FEF5FEF60E070E08CEB87
:102540000E942B086B0122E04FEF5FEF60E070E02C
:102550008EEB0E942B082A813B81309372052093D9
:1025600071052E813F8130937405209373052A8570
:102570003B8530937605209375052E853F853093F6
:102580007805209377052A893B8930937A05209333
:1025900079052E893F8930937C0520937B052A8D10
:1025A0003B8D30937E0520937D05509280054092AF
:1025B0007F059092820580928105D0928405C09219
:1025C0008305709386056093850546EB60EE8FE684
:1025D00095E00E94460683E08093880587E294E0B8
:1025E000E7EDF3E011928E179F07E1F78091D60394
:1025F0008B3040F081E08093D60361E090E080E092
:102600000E94FD0B8091D5038B3040F081E08093D8
:10261000D50361E081E090E00E94FD0B8091CB0347
:10262000823038F01092CB0360E082E090E00E94AC
:10263000FD0B8091CC03823038F01092CC0360E027
:1026400083E090E00E94FD0B8091C5039091C6034A
:10265000892B11F40E94C2076EE1C62ED12CE12C09
:10266000F12C44244394512CE5E16E2E712C60E052
:102670008DE00E94260288E995E00E9486071816E0
:1026800019060CF05FC1109228041092270488E903
:1026900095E00E948607181619060CF001C188E91A
:1026A00095E00E949E07A0902704B0902804F501B1
:1026B000E952FC4F8083C50169E170E00E94141C5F
:1026C000892B09F0E1C00091B1031091B2030631EA
:1026D000110521F540E050E0BA01C8010E94A400B4
:1026E0000F5F1F4F0E321105A9F74AE055E060E079
:1026F00070E08DE290E00E94A40041E252E161E0CE
:1027000070E08EE290E00E94A40048EC5EE66AE091
:1027100070E086E190E00E94A400A5C00731110599
:1027200021F506E110E040E050E0BA01C8010E9446
:10273000A4000F5F1F4F0E321105A9F74AE055E0C4
:1027400060E070E08EE290E00E94A40041E252E17D
:1027500061E070E086E190E00E94A40048EC5EE653
:102760006AE070E087E190E0D6CFC80148974797CC
:1027700030F556E1852E912C40E050E0BA01C401BD
:102780000E94A4003FEF831A930A8EE288169104F8
:1027900099F74AE055E060E070E0C80102970E94B6
:1027A000A40041E252E161E070E0C80101970E949B
:1027B000A40048EC5EE66AE070E0C801ACCF0F32DE
:1027C000110521F506E110E040E050E0BA01C80132
:1027D0000E94A4000F5F1F4F0E321105A9F74AE0B7
:1027E00055E060E070E08DE290E00E94A40041E2DC
:1027F00052E161E070E08EE290E00E94A40048ECBB
:102800005EE66AE070E088E190E085CF0033110574
:1028100009F070C007E110E040E050E0BA01C801E3
:102820000E94A4000F5F1F4F0E321105A9F74AE066
:1028300055E060E070E08EE290E00E94A40041E28A
:1028400052E161E070E088E190E00E94A40048EC71
:102850005EE66AE070E089E190E00E94A400709278
:10286000B2036092B1038091B1039091B2030196DB
:102870009093B2038093B1030E94D30261E070E0B1
:1028800080E090E00E94B2032FEFA21AB20AB09249
:102890002804A092270431E5A316B1040CF4F7CE66
:1028A00010922804109227048091D703843409F0F1
:1028B000A4C24091CC032091CB033091D503509119
:1028C000D603E7EDF3E081E090E06191662309F43F
:1028D00089C26A536230C8F78230910509F478C220
:1028E0000CF06AC28130910581F75081505382E02B
:1028F00090E0EBCF0133110509F0B5CF07E110E00F
:1029000040E050E0BA01C8010E94A4000F5F1F4FD1
:102910000E321105A9F74AE055E060E070E088E169
:1029200090E00E94A40041E252E161E070E089E1A0
:1029300090E00E94A40048EC5EE66AE070E08AE164
:1029400090E0E9CE82E08093D60346E0A42EA092E8
:10295000D5031092D4031092D3031092D203109295
:10296000D1031092D0031092CF031092CE03109295
:10297000CD0310E000E040E050E0BA01C8010E9441
:10298000A4000F5F1F4F06311105A9F70E94D30263
:102990002091C9033091CA03032E000C440B550B40
:1029A000275B310941095109A8E1B0E00E94E6180E
:1029B000A70196010E94C71849012DE082169104D3
:1029C00008F066C140E050E0BA01C8010E94A400CE
:1029D0000F5F1F4F0E321105A9F7C401469640E064
:1029E00050E06FEF70E00E94A400C40181964FEFA9
:1029F00050E060E070E00E94A4005092C603409254
:102A0000C5031091CC038091CB0361E0813019F0B4
:102A1000811104C060E08CE00E94260261E0113068
:102A200019F0111104C060E08BE00E94260208EE4C
:102A300013E021E635E04EE06BE3809160050E94F3
:102A4000030980916105909162059827892798274D
:102A50009093C4038093C3038091630590916405B0
:102A60009827892798279093C2038093C103809168
:102A70006505909166059827892798279093C0034C
:102A80008093BF038091690590916A0598278927F3
:102A900098279093BE038093BD0380916B0590911E
:102AA0006C059827892798279093BC038093BB03D4
:102AB00080916D0590916E059827892798279093AE
:102AC000BA038093B90329E535E046E063E08091DD
:102AD00058050E94030980915F05813031F441E07F
:102AE00062E0809158050E94F50660915905709149
:102AF0005A057627672776277093B8036093B70344
:102B000000915D0510915E05102701271027109395
:102B1000B6030093B50380915B0590915C059827FF
:102B2000892798279093B4038093B303072E000C52
:102B3000880B990B0E94B01A4B015C01B801110F70
:102B4000880B990B0E94B01AA50194010E94A2194A
:102B50004B015C0120E030E0A9010E94011A87FFCF
:102B60000AC02BED3FE049EC50E4C501B4010E94DE
:102B700023194B015C0120E030E044E353E4C5013C
:102B8000B4010E948F1B2BED3FE049E450E40E940A
:102B9000061A0E94781A7093CA036093C90360E210
:102BA00084EF0E94850881118EC03EE23093870534
:102BB0006EE28FE30E94DF0864E670E080E090E060
:102BC0000E94B2030E94A1088823B1F380917B0583
:102BD00090917C0520918D0530918E0540918F0557
:102BE00050919005281B390B41095109A091790595
:102BF000B0917A050E94E6184B015C019FE0B59404
:102C0000A794979487949A95D1F7609183057091D2
:102C10008405072E000C880B990B2BE0660F771F9D
:102C2000881F991F2A95D1F7209185053091860537
:102C3000032E000C440B550B280D391D4A1D5B1D3E
:102C40000E94C718820E931EA41EB51E8092910585
:102C500090929205A0929305B092940588E0880E18
:102C6000911CA11CB11CC501B40134E09595879558
:102C7000779567953A95D1F70E94B01A2DEC3CEC08
:102C80004CEC5DE30E948F1B0E94781A1B0121C04F
:102C9000C4010D970C9708F0B0CE40E050E0BA01A7
:102CA000C8010E94A4000F5F1F4F0E321105A9F743
:102CB000C4010A9640E050E06FEF70E00E94A4006B
:102CC000C401469694CE67E772E088E995E00E94D9
:102CD000C90A3092C8032092C70360E284EF0E94C1
:102CE0008508811119C084E3A82EA0928705609100
:102CF000880520E4629FB001112464638FEF0E9475
:102D0000DF0864E670E080E090E00E94B2030E9479
:102D1000A1088823B1F306C062EC72E088E995E06F
:102D20000E94C90A6091C9037091CA03072E000C62
:102D3000880B990B97FF3CC00E94A30A6CE471E0DA
:102D400088E995E00E94470A0091C7031091C803E3
:102D5000C801C2978536910508F08DCCB12CA12C05
:102D600040E050E06FEF70E0C5010E94A4003FEF2B
:102D7000A31AB30A8EE2A816B10491F70E94D302F7
:102D800068EC70E080E090E00E94B2038091C5039F
:102D90009091C603892B11F40E94C20768EE73E07C
:102DA00080E090E00E94B203B801110F880B990BEC
:102DB0004AE00E94560AC2CF8330910571F08430F8
:102DC000910509F082CD4081405385E090E07DCDB2
:102DD0003081305383E090E078CD2081205384E02F
:102DE00090E073CD5093D6034093CC033093D5033A
:102DF0002093CB030E94680BCEC0833409F00DC131
:102E00004091CD035091CE036091CF037091D003D8
:102E1000A091D103B091D2032091D3033091D40378
:102E2000E7EDF3E081E090E014E60AE0B190BB202A
:102E300009F49BC00F2EF6ECAF2EF02DBA0CAA248D
:102E4000A394AB1498F38230910509F44DC024F596
:102E50008130910559F78181082E000C990BC0979C
:102E6000189F5001199FB00C11248281082E000C6C
:102E7000990BC097089F9001099F300D1124A20E55
:102E8000B31E2381022E000C330B205331092A0D6F
:102E90003B1D82E090E0CACF8330910509F444C025
:102EA0008430910519F68181082E000C990BC0978A
:102EB000189F5001199FB00C11248281082E000C1C
:102EC000990BC097089FA001099F500D1124A40ED3
:102ED000B51E4381042E000C550B405351094A0D79
:102EE0005B1D85E090E0A2CF8181082E000C990B3C
:102EF000C097189F5001199FB00C11248281082E91
:102F0000000C990BC097089FD001099FB00D1124A8
:102F1000AA0EBB1EA3810A2E000CBB0BD097AA0DD4
:102F2000BB1D83E090E082CF8181082E000C990BBD
:102F3000C097189F5001199FB00C11248281082E50
:102F4000000C990BC097089FB001099F700D1124C8
:102F5000A60EB71E6381062E000C770B6053710915
:102F60006A0D7B1D84E090E061CFB093D203A09303
:102F7000D1037093D0036093CF035093CE0340935B
:102F8000CD033093D4032093D3030E94DD0A109223
:102F9000C6031092C5036AE073E089E994E00E94D9
:102FA000C90A6091D30384E090E00E94FD0B609118
:102FB000D10385E090E00E94FD0B6091CF0386E095
:102FC00090E00E94FD0B6091CB0382E090E00E94B4
:102FD000FD0B6091CC0383E090E00E94FD0B6091BB
:102FE000D50381E090E00E94FD0B6091D60390E054
:102FF00080E00E94FD0B6091CD0387E090E00E948D
:10300000FD0BE7EDF3E0CF01875D93402191222393
:1030100069F0DF0111971C92F6CF813409F4EACEF2
:10302000823409F0B8CF0E94DD0AB5CF909328040E
:10303000809327040E94010C8091D6038B3040F0CE
:1030400081E08093D60361E090E080E00E94FD0B78
:103050008091D5038B3040F081E08093D50361E00F
:1030600081E090E00E94FD0B8091CB03823038F02C
:103070001092CB0360E082E090E00E94FD0B809113
:10308000CC03823038F01092CC0360E083E090E013
:103090000E94FD0B8091D3039091D4038F3F910543
:1030A00029F020F01092D4031092D3038091D10321
:1030B0009091D2038F3F910529F020F01092D20316
:1030C0001092D1038091CF039091D0038F3F91054F
:1030D00029F020F01092D0031092CF038091CD03FD
:1030E0009091CE038F3F910529F020F01092CE03EE
:1030F0001092CD0388E995E00E948607892B09F09C
:10310000B6CA1092C6031092C503B1CA80914B058E
:1031100090914C050E94CA1C8091480590914905E8
:1031200097FD03C060E00E9472028EE391E09093ED
:103130009905809398058091A9039091AA038859D5
:10314000954071F4E091AB05F091AC0590818091D0
:10315000AD058095892380831092AA031092A9035C
:103160000895F999FECF92BD81BDF89A992780B54F
:103170000895262FF999FECF1FBA92BD81BD20BDBB
:103180000FB6F894FA9AF99A0FBE01960895052E93
:1031900097FB1EF400940E94DE1857FD07D00E9492
:1031A000F11807FC03D04EF40C94DE1850954095AE
:1031B000309521953F4F4F4F5F4F089590958095E3
:1031C000709561957F4F8F4F9F4F08950E941319FF
:1031D000A59F900DB49F900DA49F800D911D11246B
:1031E0000895A1E21A2EAA1BBB1BFD010DC0AA1F48
:1031F000BB1FEE1FFF1FA217B307E407F50720F060
:10320000A21BB30BE40BF50B661F771F881F991FDA
:103210001A9469F760957095809590959B01AC0123
:10322000BD01CF010895A29FB001B39FC001A39F2C
:10323000700D811D1124911DB29F700D811D1124EF
:10324000911D08955058BB27AA270E943A190C9443
:103250004D1B0E943F1B38F00E94461B20F039F4A2
:103260009F3F19F426F40C94151B0EF4E095E7FB30
:103270000C940F1BE92F0E945E1B58F3BA176207CC
:1032800073078407950720F079F4A6F50C94801B4A
:103290000EF4E0950B2EBA2FA02D0B01B901900171
:1032A0000C01CA01A0011124FF27591B99F0593FB5
:1032B00050F4503E68F11A16F040A22F232F342FFD
:1032C0004427585FF3CF469537952795A795F0404B
:1032D0005395C9F77EF41F16BA0B620B730B840B60
:1032E000BAF09150A1F0FF0FBB1F661F771F881F18
:1032F000C2F70EC0BA0F621F731F841F48F4879570
:1033000077956795B795F7959E3F08F0B0CF939561
:10331000880F08F09927EE0F9795879508950E94DA
:103320003F1B60F080E891E009F49EEF0E94461B8D
:1033300028F040E851E071F45EEF0CC00C94151BCE
:103340000C94801BE92FE0780E945E1B40F3092E4D
:10335000052AB1F3261737074807590738F00E2E0C
:1033600007F8E02569F0E025E0640AC0EF6307F89C
:10337000009407FADB01B9019D01DC01CA01AD012E
:10338000EF930E941D1A0E944D1B0E94D2195F915B
:10339000552339F02BED3FE049E450FD49EC0C9406
:1033A00023190895DF93DD27B92FBF7740E85FE346
:1033B0001616170648075B0718F4D92F0E94871BBB
:1033C0009F938F937F936F930E94FC1BE8E6F0E03E
:1033D0000E94181B0E944D1B2F913F914F915F91AE
:1033E0000E94A21BDD2351F09058A2EA2AED3FE093
:1033F00049EC5FE3D0785D270E943A19DF910C9485
:103400004D1B0E94EB1A08F481E008950E941A1ADD
:103410000C944D1B0E94461B58F00E943F1B40F02D
:1034200029F45F3F29F00C940F1B51110C94811B60
:103430000C94151B0E945E1B68F39923B1F355236E
:1034400091F3951B550BBB27AA27621773078407B7
:1034500038F09F5F5F4F220F331F441FAA1FA9F34D
:1034600035D00E2E3AF0E0E832D091505040E6953B
:10347000001CCAF72BD0FE2F29D0660F771F881F9C
:10348000BB1F261737074807AB07B0E809F0BB0B8F
:10349000802DBF01FF2793585F4F3AF09E3F5105A3
:1034A00078F00C940F1B0C94811B5F3FE4F3983E63
:1034B000D4F3869577956795B795F7959F5FC9F78C
:1034C000880F911D9695879597F90895E1E0660F0D
:1034D000771F881FBB1F621773078407BA0720F086
:1034E000621B730B840BBA0BEE1F88F7E0950895EF
:1034F0000E947F1A6894B1110C94811B08950E9458
:10350000661B88F09F5798F0B92F9927B751B0F0F4
:10351000E1F0660F771F881F991F1AF0BA95C9F757
:1035200014C0B13091F00E94801BB1E008950C945A
:10353000801B672F782F8827B85F39F0B93FCCF30D
:10354000869577956795B395D9F73EF490958095D4
:10355000709561957F4F8F4F9F4F0895E89409C0F4
:1035600097FB3EF490958095709561957F4F8F4FB6
:103570009F4F9923A9F0F92F96E9BB279395F695CC
:10358000879577956795B795F111F8CFFAF4BB0F4A
:1035900011F460FF1BC06F5F7F4F8F4F9F4F16C0AE
:1035A000882311F096E911C0772321F09EE8872F38
:1035B000762F05C0662371F096E8862F70E060E0F4
:1035C0002AF09A95660F771F881FDAF7880F96956D
:1035D000879597F90895990F0008550FAA0BE0E811
:1035E000FEEF16161706E807F907C0F012161306C5
:1035F000E407F50798F0621B730B840B950B39F405
:103600000A2661F0232B242B252B21F408950A266A
:1036100009F4A140A6958FEF811D811D089597F9AA
:103620009F6780E870E060E008959FEF80EC089568
:10363000DF93CF931F930F93FF92EF92DF927B0163
:103640008C01689406C0DA2EEF010E94A21BFE01D5
:10365000E894A5912591359145915591A6F3EF01F7
:103660000E943A19FE019701A801DA9469F7DF90E8
:10367000EF90FF900F911F91CF91DF91089500245B
:103680000A941616170618060906089500240A94C7
:1036900012161306140605060895092E0394000C4D
:1036A00011F4882352F0BB0F40F4BF2B11F460FFDC
:1036B00004C06F5F7F4F8F4F9F4F089557FD905805
:1036C000440F551F59F05F3F71F04795880F97FBE6
:1036D000991F61F09F3F79F08795089512161306A0
:1036E0001406551FF2CF4695F1DF08C016161706CF
:1036F0001806991FF1CF8695710561050894089504
:10370000E894BB2766277727CB0197F908959B019B
:10371000AC0160E070E080E89FE30C94061A0E9420
:10372000A21B0C944D1B0E943F1B38F00E94461BAD
:1037300020F0952311F00C940F1B0C94151B1124F1
:103740000C94811B0E945E1B70F3959FC1F3950F33
:1037500050E0551F629FF001729FBB27F00DB11D15
:10376000639FAA27F00DB11DAA1F649F6627B00DA5
:10377000A11D661F829F2227B00DA11D621F739F8E
:10378000B00DA11D621F839FA00D611D221F749F9C
:103790003327A00D611D231F849F600D211D822FE3
:1037A000762F6A2F11249F5750409AF0F1F088230A
:1037B0004AF0EE0FFF1FBB1F661F771F881F915037
:1037C0005040A9F79E3F510580F00C940F1B0C94BC
:1037D000811B5F3FE4F3983ED4F386957795679518
:1037E000B795F795E7959F5FC1F7FE2B880F911D61
:1037F0009695879597F908959B01AC010C948F1BC2
:10380000AA1BBB1B51E107C0AA1FBB1FA617B70706
:1038100010F0A61BB70B881F991F5A95A9F7809522
:103820009095BC01CD01089597FB072E16F40094E6
:1038300007D077FD09D00E94001C07FC05D03EF49C
:10384000909581959F4F0895709561957F4F08954C
:10385000EE0FFF1F0590F491E02D09940F931F9335
:10386000CF93DF938230910510F482E090E0E091F5
:10387000B905F091BA0530E020E0B0E0A0E0309763
:1038800099F42115310509F44AC0281B390B24305D
:103890003105D8F58A819B816115710589F1FB019C
:1038A00093838283FE0111C0408151810281138183
:1038B00048175907E0F04817590799F4109761F035
:1038C00012960C93129713961C933296CF01DF91A8
:1038D000CF911F910F9108950093B9051093BA05E8
:1038E000F4CF2115310551F04217530738F0A901E3
:1038F000DB019A01BD01DF01F801C1CFEF01F9CF72
:103900009093BA058093B905CDCFFE01E20FF31F66
:10391000819391932250310939832883D7CF209105
:10392000B7053091B805232B41F420910201309165
:1039300003013093B8052093B70520910001309121
:1039400001012115310541F42DB73EB74091040125
:1039500050910501241B350BE091B705F091B80596
:10396000E217F307A0F42E1B3F0B2817390778F056
:10397000AC014E5F5F4F2417350748F04E0F5F1FB5
:103980005093B8054093B705819391939FCFF0E092
:10399000E0E09CCFCF93DF930097E9F0FC013297F2
:1039A00013821282A091B905B091BA05ED0130E001
:1039B00020E01097A1F420813181820F931F209184
:1039C000B7053091B8052817390709F061C0F093A1
:1039D000B805E093B705DF91CF910895EA01CE17BE
:1039E000DF07E8F54A815B819E0141155105B1F77A
:1039F000E901FB83EA8349915991C40FD51FEC1764
:103A0000FD0761F4808191810296840F951FE90181
:103A100099838883828193819B838A83F0E0E0E0AD
:103A200012968D919C9113970097B9F52D913C9129
:103A30001197CD010296820F931F2091B705309107
:103A4000B8052817390739F6309751F51092BA059D
:103A50001092B905B093B805A093B705BCCFD38336
:103A6000C28340815181840F951FC817D90761F423
:103A70004E5F5F4F88819981480F591F5183408362
:103A80008A819B81938382832115310509F0B0CF10
:103A9000F093BA05E093B9059ECFFD01DC01C0CFDC
:103AA00013821282D7CF81E090E0F8940C94581DD5
:103AB00010E0C9E7D0E004C0FE010E94281C219656
:0A3AC000CA37D107C9F7F894FFCF09
:103ACA000000BB05800000000000B9011901460191
:103ADA00060277015501690100000000C606990631
:103AEA00BF0776061A048606770600000000190446
:103AFA00410A15015408D4074606000000002A07A7
:103B0A001901BF07760686079E0712070D0A0043AA
:103B1A005B523A002F473A002F423A002F573A0099
:103B2A005D00445B424E3A002F544E3A002F314F0B
:103B3A003A002F324F3A002F43483A002F53543A53
:103B4A00004E3A2047657420646174612000484D34
:103B5A0043353838334C20636F6E6E656374696F12
:103B6A006E207375636365737366756C00484D43A5
:103B7A00353838334C20636F6E6E656374696F6EC7
:103B8A00206661696C6564004D50553630353020C9
:103B9A00636F6E6E656374696F6E207375636365B8
:103BAA00737366756C004D50553630353020636F2F
:103BBA006E6E656374696F6E206661696C65640018
:103BCA00496E697469616C697A696E672049324322
:103BDA0020646576696365732E2E2E0054657374AE
:103BEA00696E672064657669636520636F6E6E65CA
:103BFA006374696F6E732E2E2E00626567696E2874
:103C0A0029206661696C65642E20636865636B2090
:103C1A00796F757220424D5031383020496E746583
:103C2A00726661636520616E642049324320416493
:103C3A0064726573732E00636F756C64206E6F74A3
:103C4A002073746172742074656D70657261747525
:103C5A007265206D6561737572656D656E742C2071
:103C6A0069732061206D6561737572656D656E7427
:103C7A0020616C72656164792072756E6E696E6717
:103C8A003F00636F756C64206E6F74207374617289
:103C9A0074207065727373757265206D65617375D2
:103CAA0072656D656E742C2069732061206D656183
:103CBA00737572656D656E7420616C726561647985
:103CCA002072756E6E696E673F004E3A20536176B8
:0A3CDA00696E6720646174612000C8
:00000001FF
